{
  "_format": "hh-sol-artifact-1",
  "contractName": "ERC721ABurnableStartTokenIdMock",
  "sourceName": "contracts/mocks/ERC721ABurnableStartTokenIdMock.sol",
  "abi": [
    {
      "inputs": [
        {
          "internalType": "string",
          "name": "name_",
          "type": "string"
        },
        {
          "internalType": "string",
          "name": "symbol_",
          "type": "string"
        },
        {
          "internalType": "uint256",
          "name": "startTokenId_",
          "type": "uint256"
        }
      ],
      "stateMutability": "nonpayable",
      "type": "constructor"
    },
    {
      "inputs": [],
      "name": "ApprovalCallerNotOwnerNorApproved",
      "type": "error"
    },
    {
      "inputs": [],
      "name": "ApprovalQueryForNonexistentToken",
      "type": "error"
    },
    {
      "inputs": [],
      "name": "ApproveToCaller",
      "type": "error"
    },
    {
      "inputs": [],
      "name": "BalanceQueryForZeroAddress",
      "type": "error"
    },
    {
      "inputs": [],
      "name": "MintToZeroAddress",
      "type": "error"
    },
    {
      "inputs": [],
      "name": "MintZeroQuantity",
      "type": "error"
    },
    {
      "inputs": [],
      "name": "OwnerQueryForNonexistentToken",
      "type": "error"
    },
    {
      "inputs": [],
      "name": "TransferCallerNotOwnerNorApproved",
      "type": "error"
    },
    {
      "inputs": [],
      "name": "TransferFromIncorrectOwner",
      "type": "error"
    },
    {
      "inputs": [],
      "name": "TransferToNonERC721ReceiverImplementer",
      "type": "error"
    },
    {
      "inputs": [],
      "name": "TransferToZeroAddress",
      "type": "error"
    },
    {
      "inputs": [],
      "name": "URIQueryForNonexistentToken",
      "type": "error"
    },
    {
      "anonymous": false,
      "inputs": [
        {
          "indexed": true,
          "internalType": "address",
          "name": "owner",
          "type": "address"
        },
        {
          "indexed": true,
          "internalType": "address",
          "name": "approved",
          "type": "address"
        },
        {
          "indexed": true,
          "internalType": "uint256",
          "name": "tokenId",
          "type": "uint256"
        }
      ],
      "name": "Approval",
      "type": "event"
    },
    {
      "anonymous": false,
      "inputs": [
        {
          "indexed": true,
          "internalType": "address",
          "name": "owner",
          "type": "address"
        },
        {
          "indexed": true,
          "internalType": "address",
          "name": "operator",
          "type": "address"
        },
        {
          "indexed": false,
          "internalType": "bool",
          "name": "approved",
          "type": "bool"
        }
      ],
      "name": "ApprovalForAll",
      "type": "event"
    },
    {
      "anonymous": false,
      "inputs": [
        {
          "indexed": true,
          "internalType": "address",
          "name": "from",
          "type": "address"
        },
        {
          "indexed": true,
          "internalType": "address",
          "name": "to",
          "type": "address"
        },
        {
          "indexed": true,
          "internalType": "uint256",
          "name": "tokenId",
          "type": "uint256"
        }
      ],
      "name": "Transfer",
      "type": "event"
    },
    {
      "inputs": [
        {
          "internalType": "address",
          "name": "to",
          "type": "address"
        },
        {
          "internalType": "uint256",
          "name": "tokenId",
          "type": "uint256"
        }
      ],
      "name": "approve",
      "outputs": [],
      "stateMutability": "nonpayable",
      "type": "function"
    },
    {
      "inputs": [
        {
          "internalType": "address",
          "name": "owner",
          "type": "address"
        }
      ],
      "name": "balanceOf",
      "outputs": [
        {
          "internalType": "uint256",
          "name": "",
          "type": "uint256"
        }
      ],
      "stateMutability": "view",
      "type": "function"
    },
    {
      "inputs": [
        {
          "internalType": "uint256",
          "name": "tokenId",
          "type": "uint256"
        }
      ],
      "name": "burn",
      "outputs": [],
      "stateMutability": "nonpayable",
      "type": "function"
    },
    {
      "inputs": [
        {
          "internalType": "uint256",
          "name": "tokenId",
          "type": "uint256"
        }
      ],
      "name": "exists",
      "outputs": [
        {
          "internalType": "bool",
          "name": "",
          "type": "bool"
        }
      ],
      "stateMutability": "view",
      "type": "function"
    },
    {
      "inputs": [
        {
          "internalType": "uint256",
          "name": "tokenId",
          "type": "uint256"
        }
      ],
      "name": "getApproved",
      "outputs": [
        {
          "internalType": "address",
          "name": "",
          "type": "address"
        }
      ],
      "stateMutability": "view",
      "type": "function"
    },
    {
      "inputs": [
        {
          "internalType": "uint256",
          "name": "index",
          "type": "uint256"
        }
      ],
      "name": "getOwnershipAt",
      "outputs": [
        {
          "components": [
            {
              "internalType": "address",
              "name": "addr",
              "type": "address"
            },
            {
              "internalType": "uint64",
              "name": "startTimestamp",
              "type": "uint64"
            },
            {
              "internalType": "bool",
              "name": "burned",
              "type": "bool"
            }
          ],
          "internalType": "struct IERC721A.TokenOwnership",
          "name": "",
          "type": "tuple"
        }
      ],
      "stateMutability": "view",
      "type": "function"
    },
    {
      "inputs": [
        {
          "internalType": "address",
          "name": "owner",
          "type": "address"
        },
        {
          "internalType": "address",
          "name": "operator",
          "type": "address"
        }
      ],
      "name": "isApprovedForAll",
      "outputs": [
        {
          "internalType": "bool",
          "name": "",
          "type": "bool"
        }
      ],
      "stateMutability": "view",
      "type": "function"
    },
    {
      "inputs": [],
      "name": "name",
      "outputs": [
        {
          "internalType": "string",
          "name": "",
          "type": "string"
        }
      ],
      "stateMutability": "view",
      "type": "function"
    },
    {
      "inputs": [
        {
          "internalType": "address",
          "name": "owner",
          "type": "address"
        }
      ],
      "name": "numberBurned",
      "outputs": [
        {
          "internalType": "uint256",
          "name": "",
          "type": "uint256"
        }
      ],
      "stateMutability": "view",
      "type": "function"
    },
    {
      "inputs": [
        {
          "internalType": "uint256",
          "name": "tokenId",
          "type": "uint256"
        }
      ],
      "name": "ownerOf",
      "outputs": [
        {
          "internalType": "address",
          "name": "",
          "type": "address"
        }
      ],
      "stateMutability": "view",
      "type": "function"
    },
    {
      "inputs": [
        {
          "internalType": "address",
          "name": "to",
          "type": "address"
        },
        {
          "internalType": "uint256",
          "name": "quantity",
          "type": "uint256"
        }
      ],
      "name": "safeMint",
      "outputs": [],
      "stateMutability": "nonpayable",
      "type": "function"
    },
    {
      "inputs": [
        {
          "internalType": "address",
          "name": "from",
          "type": "address"
        },
        {
          "internalType": "address",
          "name": "to",
          "type": "address"
        },
        {
          "internalType": "uint256",
          "name": "tokenId",
          "type": "uint256"
        }
      ],
      "name": "safeTransferFrom",
      "outputs": [],
      "stateMutability": "nonpayable",
      "type": "function"
    },
    {
      "inputs": [
        {
          "internalType": "address",
          "name": "from",
          "type": "address"
        },
        {
          "internalType": "address",
          "name": "to",
          "type": "address"
        },
        {
          "internalType": "uint256",
          "name": "tokenId",
          "type": "uint256"
        },
        {
          "internalType": "bytes",
          "name": "_data",
          "type": "bytes"
        }
      ],
      "name": "safeTransferFrom",
      "outputs": [],
      "stateMutability": "nonpayable",
      "type": "function"
    },
    {
      "inputs": [
        {
          "internalType": "address",
          "name": "operator",
          "type": "address"
        },
        {
          "internalType": "bool",
          "name": "approved",
          "type": "bool"
        }
      ],
      "name": "setApprovalForAll",
      "outputs": [],
      "stateMutability": "nonpayable",
      "type": "function"
    },
    {
      "inputs": [],
      "name": "startTokenId",
      "outputs": [
        {
          "internalType": "uint256",
          "name": "",
          "type": "uint256"
        }
      ],
      "stateMutability": "view",
      "type": "function"
    },
    {
      "inputs": [
        {
          "internalType": "bytes4",
          "name": "interfaceId",
          "type": "bytes4"
        }
      ],
      "name": "supportsInterface",
      "outputs": [
        {
          "internalType": "bool",
          "name": "",
          "type": "bool"
        }
      ],
      "stateMutability": "view",
      "type": "function"
    },
    {
      "inputs": [],
      "name": "symbol",
      "outputs": [
        {
          "internalType": "string",
          "name": "",
          "type": "string"
        }
      ],
      "stateMutability": "view",
      "type": "function"
    },
    {
      "inputs": [
        {
          "internalType": "uint256",
          "name": "tokenId",
          "type": "uint256"
        }
      ],
      "name": "tokenURI",
      "outputs": [
        {
          "internalType": "string",
          "name": "",
          "type": "string"
        }
      ],
      "stateMutability": "view",
      "type": "function"
    },
    {
      "inputs": [],
      "name": "totalBurned",
      "outputs": [
        {
          "internalType": "uint256",
          "name": "",
          "type": "uint256"
        }
      ],
      "stateMutability": "view",
      "type": "function"
    },
    {
      "inputs": [],
      "name": "totalMinted",
      "outputs": [
        {
          "internalType": "uint256",
          "name": "",
          "type": "uint256"
        }
      ],
      "stateMutability": "view",
      "type": "function"
    },
    {
      "inputs": [],
      "name": "totalSupply",
      "outputs": [
        {
          "internalType": "uint256",
          "name": "",
          "type": "uint256"
        }
      ],
      "stateMutability": "view",
      "type": "function"
    },
    {
      "inputs": [
        {
          "internalType": "address",
          "name": "from",
          "type": "address"
        },
        {
          "internalType": "address",
          "name": "to",
          "type": "address"
        },
        {
          "internalType": "uint256",
          "name": "tokenId",
          "type": "uint256"
        }
      ],
      "name": "transferFrom",
      "outputs": [],
      "stateMutability": "nonpayable",
      "type": "function"
    }
  ],
  "bytecode": "0x60806040523480156200001157600080fd5b5060405162001594380380620015948339810160408190526200003491620001f4565b6000819055825183908390829082906200005690600390602085019062000081565b5080516200006c90600490602084019062000081565b5060005460015550620002a495505050505050565b8280546200008f9062000267565b90600052602060002090601f016020900481019282620000b35760008555620000fe565b82601f10620000ce57805160ff1916838001178555620000fe565b82800160010185558215620000fe579182015b82811115620000fe578251825591602001919060010190620000e1565b506200010c92915062000110565b5090565b5b808211156200010c576000815560010162000111565b634e487b7160e01b600052604160045260246000fd5b600082601f8301126200014f57600080fd5b81516001600160401b03808211156200016c576200016c62000127565b604051601f8301601f19908116603f0116810190828211818310171562000197576200019762000127565b81604052838152602092508683858801011115620001b457600080fd5b600091505b83821015620001d85785820183015181830184015290820190620001b9565b83821115620001ea5760008385830101525b9695505050505050565b6000806000606084860312156200020a57600080fd5b83516001600160401b03808211156200022257600080fd5b62000230878388016200013d565b945060208601519150808211156200024757600080fd5b5062000256868287016200013d565b925050604084015190509250925092565b600181811c908216806200027c57607f821691505b602082108114156200029e57634e487b7160e01b600052602260045260246000fd5b50919050565b6112e080620002b46000396000f3fe608060405234801561001057600080fd5b50600436106101825760003560e01c806370a08231116100d8578063b88d4fde1161008c578063e6798baa11610066578063e6798baa1461030b578063e985e9c514610314578063f25236331461035057600080fd5b8063b88d4fde146102dd578063c87b56dd146102f0578063d89135cd1461030357600080fd5b8063a1448194116100bd578063a1448194146102ab578063a22cb465146102be578063a2309ff8146102d157600080fd5b806370a082311461029057806395d89b41146102a357600080fd5b806323b872dd1161013a57806342966c681161011457806342966c68146102575780634f558e791461026a5780636352211e1461027d57600080fd5b806323b872dd1461021e5780632478d6391461023157806342842e0e1461024457600080fd5b8063081812fc1161016b578063081812fc146101c4578063095ea7b3146101ef57806318160ddd1461020457600080fd5b806301ffc9a71461018757806306fdde03146101af575b600080fd5b61019a610195366004610f05565b61039a565b60405190151581526020015b60405180910390f35b6101b76103ec565b6040516101a69190610f7a565b6101d76101d2366004610f8d565b61047e565b6040516001600160a01b0390911681526020016101a6565b6102026101fd366004610fc2565b6104c2565b005b60005460025460015403035b6040519081526020016101a6565b61020261022c366004610fec565b61056f565b61021061023f366004611028565b61057f565b610202610252366004610fec565b6105ad565b610202610265366004610f8d565b6105c8565b61019a610278366004610f8d565b6105d6565b6101d761028b366004610f8d565b6105e1565b61021061029e366004611028565b6105ec565b6101b7610632565b6102026102b9366004610fc2565b610641565b6102026102cc366004611043565b61064f565b60005460015403610210565b6102026102eb366004611095565b6106ea565b6101b76102fe366004610f8d565b610734565b6102106107b9565b61021060005481565b61019a610322366004611171565b6001600160a01b03918216600090815260086020908152604080832093909416825291909152205460ff1690565b61036361035e366004610f8d565b6107c4565b6040805182516001600160a01b0316815260208084015167ffffffffffffffff1690820152918101511515908201526060016101a6565b60006301ffc9a760e01b6001600160e01b0319831614806103cb57506380ac58cd60e01b6001600160e01b03198316145b806103e65750635b5e139f60e01b6001600160e01b03198316145b92915050565b6060600380546103fb906111a4565b80601f0160208091040260200160405190810160405280929190818152602001828054610427906111a4565b80156104745780601f1061044957610100808354040283529160200191610474565b820191906000526020600020905b81548152906001019060200180831161045757829003601f168201915b5050505050905090565b6000610489826107ea565b6104a6576040516333d1c03960e21b815260040160405180910390fd5b506000908152600760205260409020546001600160a01b031690565b60006104cd82610826565b9050336001600160a01b03821614610506576104e98133610322565b610506576040516367d9dca160e11b815260040160405180910390fd5b600082815260076020526040808220805473ffffffffffffffffffffffffffffffffffffffff19166001600160a01b0387811691821790925591518593918516917f8c5be1e5ebec7d5bd14f71427d1e84f3dd0314c0f7b2291e5b200ac8c7c3b92591a4505050565b61057a838383610896565b505050565b60006103e6826001600160a01b031660009081526006602052604090205460801c67ffffffffffffffff1690565b61057a838383604051806020016040528060008152506106ea565b6105d3816001610a53565b50565b60006103e6826107ea565b60006103e682610826565b60008161060c576040516323d3ad8160e21b815260040160405180910390fd5b506001600160a01b031660009081526006602052604090205467ffffffffffffffff1690565b6060600480546103fb906111a4565b61064b8282610bd4565b5050565b6001600160a01b0382163314156106795760405163b06307db60e01b815260040160405180910390fd5b3360008181526008602090815260408083206001600160a01b03871680855290835292819020805460ff191686151590811790915590519081529192917f17307eab39ab6107e8899845ad3d59bd9653f200f220920489ca2b5937696c31910160405180910390a35050565b905090565b6106f5848484610896565b6001600160a01b0383163b1561072e5761071184848484610bee565b61072e576040516368d2bf6b60e11b815260040160405180910390fd5b50505050565b606061073f826107ea565b61075c57604051630a14c4b560e41b815260040160405180910390fd5b6000610766610cd6565b905080516000141561078757604051806020016040528060008152506107b2565b8061079184610cf6565b6040516020016107a29291906111df565b6040516020818303038152906040525b9392505050565b60006106e560025490565b60408051606081018252600080825260208201819052918101919091526103e682610d45565b6000816107f660005490565b11158015610805575060015482105b80156103e6575050600090815260056020526040902054600160e01b161590565b6000818061083360005490565b1161087d5760015481101561087d57600081815260056020526040902054600160e01b811661087b575b806107b257506000190160008181526005602052604090205461085d565b505b604051636f96cda160e11b815260040160405180910390fd5b60006108a182610826565b9050836001600160a01b0316816001600160a01b0316146108d45760405162a1148160e81b815260040160405180910390fd5b6000828152600760205260408120546001600160a01b039081169190861633148061090457506109048633610322565b8061091757506001600160a01b03821633145b90508061093757604051632ce44b5f60e11b815260040160405180910390fd5b8461095557604051633a954ecd60e21b815260040160405180910390fd5b8115610985576000848152600760205260409020805473ffffffffffffffffffffffffffffffffffffffff191690555b6001600160a01b03868116600090815260066020908152604080832080546000190190559288168252828220805460010190558682526005905220600160e11b4260a01b871781179091558316610a0a5760018401600081815260056020526040902054610a08576001548114610a085760008181526005602052604090208490555b505b83856001600160a01b0316876001600160a01b03167fddf252ad1be2c89b69c2b068fc378daa952ba7f163c4a11628f55a4df523b3ef60405160405180910390a4505050505050565b6000610a5e83610826565b60008481526007602052604090205490915081906001600160a01b03168315610ad4576000336001600160a01b0384161480610a9f5750610a9f8333610322565b80610ab257506001600160a01b03821633145b905080610ad257604051632ce44b5f60e11b815260040160405180910390fd5b505b8015610b04576000858152600760205260409020805473ffffffffffffffffffffffffffffffffffffffff191690555b6001600160a01b038216600090815260066020908152604080832080546fffffffffffffffffffffffffffffffff01905587835260059091529020600360e01b4260a01b8417179055600160e11b8316610b8c5760018501600081815260056020526040902054610b8a576001548114610b8a5760008181526005602052604090208490555b505b60405185906000906001600160a01b038516907fddf252ad1be2c89b69c2b068fc378daa952ba7f163c4a11628f55a4df523b3ef908390a45050600280546001019055505050565b61064b828260405180602001604052806000815250610db0565b604051630a85bd0160e11b81526000906001600160a01b0385169063150b7a0290610c2390339089908890889060040161120e565b6020604051808303816000875af1925050508015610c5e575060408051601f3d908101601f19168201909252610c5b9181019061124a565b60015b610cb9573d808015610c8c576040519150601f19603f3d011682016040523d82523d6000602084013e610c91565b606091505b508051610cb1576040516368d2bf6b60e11b815260040160405180910390fd5b805181602001fd5b6001600160e01b031916630a85bd0160e11b149050949350505050565b606060405180608001604052806043815260200161126860439139905090565b604080516080810191829052607f0190826030600a8206018353600a90045b8015610d3357600183039250600a81066030018353600a9004610d15565b50819003601f19909101908152919050565b60408051606081018252600080825260208201819052918101919091526000828152600560205260409020546103e690604080516060810182526001600160a01b038316815260a083901c67ffffffffffffffff166020820152600160e01b90921615159082015290565b610dba8383610e1d565b6001600160a01b0383163b1561057a576001548281035b610de46000868380600101945086610bee565b610e01576040516368d2bf6b60e11b815260040160405180910390fd5b818110610dd1578160015414610e1657600080fd5b5050505050565b60015482610e3d57604051622e076360e81b815260040160405180910390fd5b81610e5b5760405163b562e8dd60e01b815260040160405180910390fd5b6001600160a01b03831660009081526006602090815260408083208054680100000000000000018702019055838352600590915281204260a01b85176001851460e11b1790555b60405160018201918301906001600160a01b038616906000907fddf252ad1be2c89b69c2b068fc378daa952ba7f163c4a11628f55a4df523b3ef908290a4828110610ea257500160015550565b6001600160e01b0319811681146105d357600080fd5b600060208284031215610f1757600080fd5b81356107b281610eef565b60005b83811015610f3d578181015183820152602001610f25565b8381111561072e5750506000910152565b60008151808452610f66816020860160208601610f22565b601f01601f19169290920160200192915050565b6020815260006107b26020830184610f4e565b600060208284031215610f9f57600080fd5b5035919050565b80356001600160a01b0381168114610fbd57600080fd5b919050565b60008060408385031215610fd557600080fd5b610fde83610fa6565b946020939093013593505050565b60008060006060848603121561100157600080fd5b61100a84610fa6565b925061101860208501610fa6565b9150604084013590509250925092565b60006020828403121561103a57600080fd5b6107b282610fa6565b6000806040838503121561105657600080fd5b61105f83610fa6565b91506020830135801515811461107457600080fd5b809150509250929050565b634e487b7160e01b600052604160045260246000fd5b600080600080608085870312156110ab57600080fd5b6110b485610fa6565b93506110c260208601610fa6565b925060408501359150606085013567ffffffffffffffff808211156110e657600080fd5b818701915087601f8301126110fa57600080fd5b81358181111561110c5761110c61107f565b604051601f8201601f19908116603f011681019083821181831017156111345761113461107f565b816040528281528a602084870101111561114d57600080fd5b82602086016020830137600060208483010152809550505050505092959194509250565b6000806040838503121561118457600080fd5b61118d83610fa6565b915061119b60208401610fa6565b90509250929050565b600181811c908216806111b857607f821691505b602082108114156111d957634e487b7160e01b600052602260045260246000fd5b50919050565b600083516111f1818460208801610f22565b835190830190611205818360208801610f22565b01949350505050565b60006001600160a01b038087168352808616602084015250836040830152608060608301526112406080830184610f4e565b9695505050505050565b60006020828403121561125c57600080fd5b81516107b281610eef56fe697066733a2f2f6261667962656965696134716b327063326b6f6f643664327a6876616733753472686d7a6d73667862736c6e796e6a6761656671677468687676712fa2646970667358221220b216cc1710ebf69539823b912733b311323c193d1e885d534079a070e677721a64736f6c634300080b0033",
  "linkReferences": {},
  "deployedLinkReferences": {}
}