{
  "_format": "hh-sol-artifact-1",
  "contractName": "ERC721AQueryableMock",
  "sourceName": "contracts/mocks/ERC721AQueryableMock.sol",
  "abi": [
    {
      "inputs": [
        {
          "internalType": "string",
          "name": "name_",
          "type": "string"
        },
        {
          "internalType": "string",
          "name": "symbol_",
          "type": "string"
        }
      ],
      "stateMutability": "nonpayable",
      "type": "constructor"
    },
    {
      "inputs": [],
      "name": "ApprovalCallerNotOwnerNorApproved",
      "type": "error"
    },
    {
      "inputs": [],
      "name": "ApprovalQueryForNonexistentToken",
      "type": "error"
    },
    {
      "inputs": [],
      "name": "ApproveToCaller",
      "type": "error"
    },
    {
      "inputs": [],
      "name": "BalanceQueryForZeroAddress",
      "type": "error"
    },
    {
      "inputs": [],
      "name": "InvalidQueryRange",
      "type": "error"
    },
    {
      "inputs": [],
      "name": "MintToZeroAddress",
      "type": "error"
    },
    {
      "inputs": [],
      "name": "MintZeroQuantity",
      "type": "error"
    },
    {
      "inputs": [],
      "name": "OwnerQueryForNonexistentToken",
      "type": "error"
    },
    {
      "inputs": [],
      "name": "TransferCallerNotOwnerNorApproved",
      "type": "error"
    },
    {
      "inputs": [],
      "name": "TransferFromIncorrectOwner",
      "type": "error"
    },
    {
      "inputs": [],
      "name": "TransferToNonERC721ReceiverImplementer",
      "type": "error"
    },
    {
      "inputs": [],
      "name": "TransferToZeroAddress",
      "type": "error"
    },
    {
      "inputs": [],
      "name": "URIQueryForNonexistentToken",
      "type": "error"
    },
    {
      "anonymous": false,
      "inputs": [
        {
          "indexed": true,
          "internalType": "address",
          "name": "owner",
          "type": "address"
        },
        {
          "indexed": true,
          "internalType": "address",
          "name": "approved",
          "type": "address"
        },
        {
          "indexed": true,
          "internalType": "uint256",
          "name": "tokenId",
          "type": "uint256"
        }
      ],
      "name": "Approval",
      "type": "event"
    },
    {
      "anonymous": false,
      "inputs": [
        {
          "indexed": true,
          "internalType": "address",
          "name": "owner",
          "type": "address"
        },
        {
          "indexed": true,
          "internalType": "address",
          "name": "operator",
          "type": "address"
        },
        {
          "indexed": false,
          "internalType": "bool",
          "name": "approved",
          "type": "bool"
        }
      ],
      "name": "ApprovalForAll",
      "type": "event"
    },
    {
      "anonymous": false,
      "inputs": [
        {
          "indexed": true,
          "internalType": "address",
          "name": "from",
          "type": "address"
        },
        {
          "indexed": true,
          "internalType": "address",
          "name": "to",
          "type": "address"
        },
        {
          "indexed": true,
          "internalType": "uint256",
          "name": "tokenId",
          "type": "uint256"
        }
      ],
      "name": "Transfer",
      "type": "event"
    },
    {
      "inputs": [
        {
          "internalType": "address",
          "name": "to",
          "type": "address"
        },
        {
          "internalType": "uint256",
          "name": "tokenId",
          "type": "uint256"
        }
      ],
      "name": "approve",
      "outputs": [],
      "stateMutability": "nonpayable",
      "type": "function"
    },
    {
      "inputs": [
        {
          "internalType": "address",
          "name": "owner",
          "type": "address"
        }
      ],
      "name": "balanceOf",
      "outputs": [
        {
          "internalType": "uint256",
          "name": "",
          "type": "uint256"
        }
      ],
      "stateMutability": "view",
      "type": "function"
    },
    {
      "inputs": [
        {
          "internalType": "uint256",
          "name": "tokenId",
          "type": "uint256"
        }
      ],
      "name": "burn",
      "outputs": [],
      "stateMutability": "nonpayable",
      "type": "function"
    },
    {
      "inputs": [
        {
          "internalType": "uint256",
          "name": "tokenId",
          "type": "uint256"
        }
      ],
      "name": "explicitOwnershipOf",
      "outputs": [
        {
          "components": [
            {
              "internalType": "address",
              "name": "addr",
              "type": "address"
            },
            {
              "internalType": "uint64",
              "name": "startTimestamp",
              "type": "uint64"
            },
            {
              "internalType": "bool",
              "name": "burned",
              "type": "bool"
            }
          ],
          "internalType": "struct IERC721A.TokenOwnership",
          "name": "",
          "type": "tuple"
        }
      ],
      "stateMutability": "view",
      "type": "function"
    },
    {
      "inputs": [
        {
          "internalType": "uint256[]",
          "name": "tokenIds",
          "type": "uint256[]"
        }
      ],
      "name": "explicitOwnershipsOf",
      "outputs": [
        {
          "components": [
            {
              "internalType": "address",
              "name": "addr",
              "type": "address"
            },
            {
              "internalType": "uint64",
              "name": "startTimestamp",
              "type": "uint64"
            },
            {
              "internalType": "bool",
              "name": "burned",
              "type": "bool"
            }
          ],
          "internalType": "struct IERC721A.TokenOwnership[]",
          "name": "",
          "type": "tuple[]"
        }
      ],
      "stateMutability": "view",
      "type": "function"
    },
    {
      "inputs": [
        {
          "internalType": "uint256",
          "name": "tokenId",
          "type": "uint256"
        }
      ],
      "name": "getApproved",
      "outputs": [
        {
          "internalType": "address",
          "name": "",
          "type": "address"
        }
      ],
      "stateMutability": "view",
      "type": "function"
    },
    {
      "inputs": [
        {
          "internalType": "address",
          "name": "owner",
          "type": "address"
        },
        {
          "internalType": "address",
          "name": "operator",
          "type": "address"
        }
      ],
      "name": "isApprovedForAll",
      "outputs": [
        {
          "internalType": "bool",
          "name": "",
          "type": "bool"
        }
      ],
      "stateMutability": "view",
      "type": "function"
    },
    {
      "inputs": [],
      "name": "name",
      "outputs": [
        {
          "internalType": "string",
          "name": "",
          "type": "string"
        }
      ],
      "stateMutability": "view",
      "type": "function"
    },
    {
      "inputs": [
        {
          "internalType": "uint256",
          "name": "tokenId",
          "type": "uint256"
        }
      ],
      "name": "ownerOf",
      "outputs": [
        {
          "internalType": "address",
          "name": "",
          "type": "address"
        }
      ],
      "stateMutability": "view",
      "type": "function"
    },
    {
      "inputs": [
        {
          "internalType": "address",
          "name": "to",
          "type": "address"
        },
        {
          "internalType": "uint256",
          "name": "quantity",
          "type": "uint256"
        }
      ],
      "name": "safeMint",
      "outputs": [],
      "stateMutability": "nonpayable",
      "type": "function"
    },
    {
      "inputs": [
        {
          "internalType": "address",
          "name": "from",
          "type": "address"
        },
        {
          "internalType": "address",
          "name": "to",
          "type": "address"
        },
        {
          "internalType": "uint256",
          "name": "tokenId",
          "type": "uint256"
        }
      ],
      "name": "safeTransferFrom",
      "outputs": [],
      "stateMutability": "nonpayable",
      "type": "function"
    },
    {
      "inputs": [
        {
          "internalType": "address",
          "name": "from",
          "type": "address"
        },
        {
          "internalType": "address",
          "name": "to",
          "type": "address"
        },
        {
          "internalType": "uint256",
          "name": "tokenId",
          "type": "uint256"
        },
        {
          "internalType": "bytes",
          "name": "_data",
          "type": "bytes"
        }
      ],
      "name": "safeTransferFrom",
      "outputs": [],
      "stateMutability": "nonpayable",
      "type": "function"
    },
    {
      "inputs": [
        {
          "internalType": "address",
          "name": "operator",
          "type": "address"
        },
        {
          "internalType": "bool",
          "name": "approved",
          "type": "bool"
        }
      ],
      "name": "setApprovalForAll",
      "outputs": [],
      "stateMutability": "nonpayable",
      "type": "function"
    },
    {
      "inputs": [
        {
          "internalType": "bytes4",
          "name": "interfaceId",
          "type": "bytes4"
        }
      ],
      "name": "supportsInterface",
      "outputs": [
        {
          "internalType": "bool",
          "name": "",
          "type": "bool"
        }
      ],
      "stateMutability": "view",
      "type": "function"
    },
    {
      "inputs": [],
      "name": "symbol",
      "outputs": [
        {
          "internalType": "string",
          "name": "",
          "type": "string"
        }
      ],
      "stateMutability": "view",
      "type": "function"
    },
    {
      "inputs": [
        {
          "internalType": "uint256",
          "name": "tokenId",
          "type": "uint256"
        }
      ],
      "name": "tokenURI",
      "outputs": [
        {
          "internalType": "string",
          "name": "",
          "type": "string"
        }
      ],
      "stateMutability": "view",
      "type": "function"
    },
    {
      "inputs": [
        {
          "internalType": "address",
          "name": "owner",
          "type": "address"
        }
      ],
      "name": "tokensOfOwner",
      "outputs": [
        {
          "internalType": "uint256[]",
          "name": "",
          "type": "uint256[]"
        }
      ],
      "stateMutability": "view",
      "type": "function"
    },
    {
      "inputs": [
        {
          "internalType": "address",
          "name": "owner",
          "type": "address"
        },
        {
          "internalType": "uint256",
          "name": "start",
          "type": "uint256"
        },
        {
          "internalType": "uint256",
          "name": "stop",
          "type": "uint256"
        }
      ],
      "name": "tokensOfOwnerIn",
      "outputs": [
        {
          "internalType": "uint256[]",
          "name": "",
          "type": "uint256[]"
        }
      ],
      "stateMutability": "view",
      "type": "function"
    },
    {
      "inputs": [],
      "name": "totalSupply",
      "outputs": [
        {
          "internalType": "uint256",
          "name": "",
          "type": "uint256"
        }
      ],
      "stateMutability": "view",
      "type": "function"
    },
    {
      "inputs": [
        {
          "internalType": "address",
          "name": "from",
          "type": "address"
        },
        {
          "internalType": "address",
          "name": "to",
          "type": "address"
        },
        {
          "internalType": "uint256",
          "name": "tokenId",
          "type": "uint256"
        }
      ],
      "name": "transferFrom",
      "outputs": [],
      "stateMutability": "nonpayable",
      "type": "function"
    }
  ],
  "bytecode": "0x60806040523480156200001157600080fd5b5060405162001afd38038062001afd8339810160408190526200003491620001e6565b8151829082906200004d90600290602085019062000073565b5080516200006390600390602084019062000073565b5060008055506200028d92505050565b828054620000819062000250565b90600052602060002090601f016020900481019282620000a55760008555620000f0565b82601f10620000c057805160ff1916838001178555620000f0565b82800160010185558215620000f0579182015b82811115620000f0578251825591602001919060010190620000d3565b50620000fe92915062000102565b5090565b5b80821115620000fe576000815560010162000103565b634e487b7160e01b600052604160045260246000fd5b600082601f8301126200014157600080fd5b81516001600160401b03808211156200015e576200015e62000119565b604051601f8301601f19908116603f0116810190828211818310171562000189576200018962000119565b81604052838152602092508683858801011115620001a657600080fd5b600091505b83821015620001ca5785820183015181830184015290820190620001ab565b83821115620001dc5760008385830101525b9695505050505050565b60008060408385031215620001fa57600080fd5b82516001600160401b03808211156200021257600080fd5b62000220868387016200012f565b935060208501519150808211156200023757600080fd5b5062000246858286016200012f565b9150509250929050565b600181811c908216806200026557607f821691505b602082108114156200028757634e487b7160e01b600052602260045260246000fd5b50919050565b611860806200029d6000396000f3fe608060405234801561001057600080fd5b506004361061016c5760003560e01c806370a08231116100cd578063a22cb46511610081578063c23dc68f11610066578063c23dc68f146102f7578063c87b56dd14610317578063e985e9c51461032a57600080fd5b8063a22cb465146102d1578063b88d4fde146102e457600080fd5b806395d89b41116100b257806395d89b41146102a357806399a2557a146102ab578063a1448194146102be57600080fd5b806370a08231146102705780638462151c1461028357600080fd5b806323b872dd1161012457806342966c681161010957806342966c681461022a5780635bbb21771461023d5780636352211e1461025d57600080fd5b806323b872dd1461020457806342842e0e1461021757600080fd5b8063081812fc11610155578063081812fc146101ae578063095ea7b3146101d957806318160ddd146101ee57600080fd5b806301ffc9a71461017157806306fdde0314610199575b600080fd5b61018461017f3660046112a8565b610366565b60405190151581526020015b60405180910390f35b6101a16103b8565b604051610190919061131d565b6101c16101bc366004611330565b61044a565b6040516001600160a01b039091168152602001610190565b6101ec6101e7366004611365565b61048e565b005b600154600054035b604051908152602001610190565b6101ec61021236600461138f565b610558565b6101ec61022536600461138f565b610568565b6101ec610238366004611330565b610583565b61025061024b366004611412565b610591565b60405161019091906114b8565b6101c161026b366004611330565b610658565b6101f661027e366004611523565b610663565b610296610291366004611523565b6106a9565b604051610190919061153e565b6101a16107aa565b6102966102b9366004611576565b6107b9565b6101ec6102cc366004611365565b610937565b6101ec6102df3660046115a9565b610945565b6101ec6102f23660046115e5565b6109db565b61030a610305366004611330565b610a25565b60405161019091906116a5565b6101a1610325366004611330565b610a8e565b6101846103383660046116db565b6001600160a01b03918216600090815260076020908152604080832093909416825291909152205460ff1690565b60006301ffc9a760e01b6001600160e01b03198316148061039757506380ac58cd60e01b6001600160e01b03198316145b806103b25750635b5e139f60e01b6001600160e01b03198316145b92915050565b6060600280546103c79061170e565b80601f01602080910402602001604051908101604052809291908181526020018280546103f39061170e565b80156104405780601f1061041557610100808354040283529160200191610440565b820191906000526020600020905b81548152906001019060200180831161042357829003601f168201915b5050505050905090565b600061045582610b12565b610472576040516333d1c03960e21b815260040160405180910390fd5b506000908152600660205260409020546001600160a01b031690565b600061049982610b39565b9050336001600160a01b038216146104ef576001600160a01b038116600090815260076020908152604080832033845290915290205460ff166104ef576040516367d9dca160e11b815260040160405180910390fd5b600082815260066020526040808220805473ffffffffffffffffffffffffffffffffffffffff19166001600160a01b0387811691821790925591518593918516917f8c5be1e5ebec7d5bd14f71427d1e84f3dd0314c0f7b2291e5b200ac8c7c3b92591a4505050565b610563838383610b9a565b505050565b610563838383604051806020016040528060008152506109db565b61058e816001610d75565b50565b805160609060008167ffffffffffffffff8111156105b1576105b16113cb565b6040519080825280602002602001820160405280156105fc57816020015b60408051606081018252600080825260208083018290529282015282526000199092019101816105cf5790505b50905060005b8281146106505761062b85828151811061061e5761061e611749565b6020026020010151610a25565b82828151811061063d5761063d611749565b6020908102919091010152600101610602565b509392505050565b60006103b282610b39565b600081610683576040516323d3ad8160e21b815260040160405180910390fd5b506001600160a01b031660009081526005602052604090205467ffffffffffffffff1690565b606060008060006106b985610663565b905060008167ffffffffffffffff8111156106d6576106d66113cb565b6040519080825280602002602001820160405280156106ff578160200160208202803683370190505b50604080516060810182526000808252602082018190529181018290529192505b83861461079e5761073081610f13565b915081604001511561074157610796565b81516001600160a01b03161561075657815194505b876001600160a01b0316856001600160a01b03161415610796578083878060010198508151811061078957610789611749565b6020026020010181815250505b600101610720565b50909695505050505050565b6060600380546103c79061170e565b60608183106107db57604051631960ccad60e11b815260040160405180910390fd5b6000806107e760005490565b9050808411156107f5578093505b600061080087610663565b90508486101561081f5785850381811015610819578091505b50610823565b5060005b60008167ffffffffffffffff81111561083e5761083e6113cb565b604051908082528060200260200182016040528015610867578160200160208202803683370190505b5090508161087a57935061093092505050565b600061088588610a25565b905060008160400151610896575080515b885b8881141580156108a85750848714155b15610924576108b681610f13565b92508260400151156108c75761091c565b82516001600160a01b0316156108dc57825191505b8a6001600160a01b0316826001600160a01b0316141561091c578084888060010199508151811061090f5761090f611749565b6020026020010181815250505b600101610898565b50505092835250909150505b9392505050565b6109418282610f7e565b5050565b6001600160a01b03821633141561096f5760405163b06307db60e01b815260040160405180910390fd5b3360008181526007602090815260408083206001600160a01b03871680855290835292819020805460ff191686151590811790915590519081529192917f17307eab39ab6107e8899845ad3d59bd9653f200f220920489ca2b5937696c31910160405180910390a35050565b6109e6848484610b9a565b6001600160a01b0383163b15610a1f57610a0284848484610f98565b610a1f576040516368d2bf6b60e11b815260040160405180910390fd5b50505050565b6040805160608082018352600080835260208084018290528385018290528451928301855281835282018190529281018390529091506000548310610a6a5792915050565b610a7383610f13565b9050806040015115610a855792915050565b61093083611080565b6060610a9982610b12565b610ab657604051630a14c4b560e41b815260040160405180910390fd5b6000610ac06110e4565b9050805160001415610ae15760405180602001604052806000815250610930565b80610aeb84611104565b604051602001610afc92919061175f565b6040516020818303038152906040529392505050565b60008054821080156103b2575050600090815260046020526040902054600160e01b161590565b600081600054811015610b8157600081815260046020526040902054600160e01b8116610b7f575b80610930575060001901600081815260046020526040902054610b61565b505b604051636f96cda160e11b815260040160405180910390fd5b6000610ba582610b39565b9050836001600160a01b0316816001600160a01b031614610bd85760405162a1148160e81b815260040160405180910390fd5b6000828152600660205260408120546001600160a01b0390811691908616331480610c2657506001600160a01b038616600090815260076020908152604080832033845290915290205460ff165b80610c3957506001600160a01b03821633145b905080610c5957604051632ce44b5f60e11b815260040160405180910390fd5b84610c7757604051633a954ecd60e21b815260040160405180910390fd5b8115610ca7576000848152600660205260409020805473ffffffffffffffffffffffffffffffffffffffff191690555b6001600160a01b03868116600090815260056020908152604080832080546000190190559288168252828220805460010190558682526004905220600160e11b4260a01b871781179091558316610d2c5760018401600081815260046020526040902054610d2a576000548114610d2a5760008181526004602052604090208490555b505b83856001600160a01b0316876001600160a01b03167fddf252ad1be2c89b69c2b068fc378daa952ba7f163c4a11628f55a4df523b3ef60405160405180910390a4505050505050565b6000610d8083610b39565b60008481526006602052604090205490915081906001600160a01b03168315610e14576000336001600160a01b0384161480610ddf57506001600160a01b038316600090815260076020908152604080832033845290915290205460ff165b80610df257506001600160a01b03821633145b905080610e1257604051632ce44b5f60e11b815260040160405180910390fd5b505b8015610e44576000858152600660205260409020805473ffffffffffffffffffffffffffffffffffffffff191690555b6001600160a01b038216600090815260056020908152604080832080546fffffffffffffffffffffffffffffffff01905587835260049091529020600360e01b4260a01b8417179055600160e11b8316610ecc5760018501600081815260046020526040902054610eca576000548114610eca5760008181526004602052604090208490555b505b60405185906000906001600160a01b038516907fddf252ad1be2c89b69c2b068fc378daa952ba7f163c4a11628f55a4df523b3ef908390a450506001805481019055505050565b60408051606081018252600080825260208201819052918101919091526000828152600460205260409020546103b290604080516060810182526001600160a01b038316815260a083901c67ffffffffffffffff166020820152600160e01b90921615159082015290565b610941828260405180602001604052806000815250611153565b604051630a85bd0160e11b81526000906001600160a01b0385169063150b7a0290610fcd90339089908890889060040161178e565b6020604051808303816000875af1925050508015611008575060408051601f3d908101601f19168201909252611005918101906117ca565b60015b611063573d808015611036576040519150601f19603f3d011682016040523d82523d6000602084013e61103b565b606091505b50805161105b576040516368d2bf6b60e11b815260040160405180910390fd5b805181602001fd5b6001600160e01b031916630a85bd0160e11b149050949350505050565b60408051606081018252600080825260208201819052918101919091526103b26110a983610b39565b604080516060810182526001600160a01b038316815260a083901c67ffffffffffffffff166020820152600160e01b90921615159082015290565b60606040518060800160405280604381526020016117e860439139905090565b604080516080810191829052607f0190826030600a8206018353600a90045b801561114157600183039250600a81066030018353600a9004611123565b50819003601f19909101908152919050565b61115d83836111c0565b6001600160a01b0383163b15610563576000548281035b6111876000868380600101945086610f98565b6111a4576040516368d2bf6b60e11b815260040160405180910390fd5b8181106111745781600054146111b957600080fd5b5050505050565b600054826111e057604051622e076360e81b815260040160405180910390fd5b816111fe5760405163b562e8dd60e01b815260040160405180910390fd5b6001600160a01b03831660009081526005602090815260408083208054680100000000000000018702019055838352600490915281204260a01b85176001851460e11b1790555b60405160018201918301906001600160a01b038616906000907fddf252ad1be2c89b69c2b068fc378daa952ba7f163c4a11628f55a4df523b3ef908290a482811061124557500160005550565b6001600160e01b03198116811461058e57600080fd5b6000602082840312156112ba57600080fd5b813561093081611292565b60005b838110156112e05781810151838201526020016112c8565b83811115610a1f5750506000910152565b600081518084526113098160208601602086016112c5565b601f01601f19169290920160200192915050565b60208152600061093060208301846112f1565b60006020828403121561134257600080fd5b5035919050565b80356001600160a01b038116811461136057600080fd5b919050565b6000806040838503121561137857600080fd5b61138183611349565b946020939093013593505050565b6000806000606084860312156113a457600080fd5b6113ad84611349565b92506113bb60208501611349565b9150604084013590509250925092565b634e487b7160e01b600052604160045260246000fd5b604051601f8201601f1916810167ffffffffffffffff8111828210171561140a5761140a6113cb565b604052919050565b6000602080838503121561142557600080fd5b823567ffffffffffffffff8082111561143d57600080fd5b818501915085601f83011261145157600080fd5b813581811115611463576114636113cb565b8060051b91506114748483016113e1565b818152918301840191848101908884111561148e57600080fd5b938501935b838510156114ac57843582529385019390850190611493565b98975050505050505050565b6020808252825182820181905260009190848201906040850190845b8181101561079e5761151083855180516001600160a01b0316825260208082015167ffffffffffffffff16908301526040908101511515910152565b92840192606092909201916001016114d4565b60006020828403121561153557600080fd5b61093082611349565b6020808252825182820181905260009190848201906040850190845b8181101561079e5783518352928401929184019160010161155a565b60008060006060848603121561158b57600080fd5b61159484611349565b95602085013595506040909401359392505050565b600080604083850312156115bc57600080fd5b6115c583611349565b9150602083013580151581146115da57600080fd5b809150509250929050565b600080600080608085870312156115fb57600080fd5b61160485611349565b93506020611613818701611349565b935060408601359250606086013567ffffffffffffffff8082111561163757600080fd5b818801915088601f83011261164b57600080fd5b81358181111561165d5761165d6113cb565b61166f601f8201601f191685016113e1565b9150808252898482850101111561168557600080fd5b808484018584013760008482840101525080935050505092959194509250565b81516001600160a01b0316815260208083015167ffffffffffffffff1690820152604080830151151590820152606081016103b2565b600080604083850312156116ee57600080fd5b6116f783611349565b915061170560208401611349565b90509250929050565b600181811c9082168061172257607f821691505b6020821081141561174357634e487b7160e01b600052602260045260246000fd5b50919050565b634e487b7160e01b600052603260045260246000fd5b600083516117718184602088016112c5565b8351908301906117858183602088016112c5565b01949350505050565b60006001600160a01b038087168352808616602084015250836040830152608060608301526117c060808301846112f1565b9695505050505050565b6000602082840312156117dc57600080fd5b81516109308161129256fe697066733a2f2f6261667962656965696134716b327063326b6f6f643664327a6876616733753472686d7a6d73667862736c6e796e6a6761656671677468687676712fa26469706673582212200f7eb4d9e9b7c71a291b5d4d718a5c9e368904ad9cdecea3445c61c50a87ae1d64736f6c634300080b0033",
  "linkReferences": {},
  "deployedLinkReferences": {}
}