{
  "_format": "hh-sol-artifact-1",
  "contractName": "ERC721ABurnableMock",
  "sourceName": "contracts/mocks/ERC721ABurnableMock.sol",
  "abi": [
    {
      "inputs": [
        {
          "internalType": "string",
          "name": "name_",
          "type": "string"
        },
        {
          "internalType": "string",
          "name": "symbol_",
          "type": "string"
        }
      ],
      "stateMutability": "nonpayable",
      "type": "constructor"
    },
    {
      "inputs": [],
      "name": "ApprovalCallerNotOwnerNorApproved",
      "type": "error"
    },
    {
      "inputs": [],
      "name": "ApprovalQueryForNonexistentToken",
      "type": "error"
    },
    {
      "inputs": [],
      "name": "ApproveToCaller",
      "type": "error"
    },
    {
      "inputs": [],
      "name": "BalanceQueryForZeroAddress",
      "type": "error"
    },
    {
      "inputs": [],
      "name": "MintToZeroAddress",
      "type": "error"
    },
    {
      "inputs": [],
      "name": "MintZeroQuantity",
      "type": "error"
    },
    {
      "inputs": [],
      "name": "OwnerQueryForNonexistentToken",
      "type": "error"
    },
    {
      "inputs": [],
      "name": "TransferCallerNotOwnerNorApproved",
      "type": "error"
    },
    {
      "inputs": [],
      "name": "TransferFromIncorrectOwner",
      "type": "error"
    },
    {
      "inputs": [],
      "name": "TransferToNonERC721ReceiverImplementer",
      "type": "error"
    },
    {
      "inputs": [],
      "name": "TransferToZeroAddress",
      "type": "error"
    },
    {
      "inputs": [],
      "name": "URIQueryForNonexistentToken",
      "type": "error"
    },
    {
      "anonymous": false,
      "inputs": [
        {
          "indexed": true,
          "internalType": "address",
          "name": "owner",
          "type": "address"
        },
        {
          "indexed": true,
          "internalType": "address",
          "name": "approved",
          "type": "address"
        },
        {
          "indexed": true,
          "internalType": "uint256",
          "name": "tokenId",
          "type": "uint256"
        }
      ],
      "name": "Approval",
      "type": "event"
    },
    {
      "anonymous": false,
      "inputs": [
        {
          "indexed": true,
          "internalType": "address",
          "name": "owner",
          "type": "address"
        },
        {
          "indexed": true,
          "internalType": "address",
          "name": "operator",
          "type": "address"
        },
        {
          "indexed": false,
          "internalType": "bool",
          "name": "approved",
          "type": "bool"
        }
      ],
      "name": "ApprovalForAll",
      "type": "event"
    },
    {
      "anonymous": false,
      "inputs": [
        {
          "indexed": true,
          "internalType": "address",
          "name": "from",
          "type": "address"
        },
        {
          "indexed": true,
          "internalType": "address",
          "name": "to",
          "type": "address"
        },
        {
          "indexed": true,
          "internalType": "uint256",
          "name": "tokenId",
          "type": "uint256"
        }
      ],
      "name": "Transfer",
      "type": "event"
    },
    {
      "inputs": [
        {
          "internalType": "address",
          "name": "to",
          "type": "address"
        },
        {
          "internalType": "uint256",
          "name": "tokenId",
          "type": "uint256"
        }
      ],
      "name": "approve",
      "outputs": [],
      "stateMutability": "nonpayable",
      "type": "function"
    },
    {
      "inputs": [
        {
          "internalType": "address",
          "name": "owner",
          "type": "address"
        }
      ],
      "name": "balanceOf",
      "outputs": [
        {
          "internalType": "uint256",
          "name": "",
          "type": "uint256"
        }
      ],
      "stateMutability": "view",
      "type": "function"
    },
    {
      "inputs": [
        {
          "internalType": "uint256",
          "name": "tokenId",
          "type": "uint256"
        }
      ],
      "name": "burn",
      "outputs": [],
      "stateMutability": "nonpayable",
      "type": "function"
    },
    {
      "inputs": [
        {
          "internalType": "uint256",
          "name": "tokenId",
          "type": "uint256"
        }
      ],
      "name": "exists",
      "outputs": [
        {
          "internalType": "bool",
          "name": "",
          "type": "bool"
        }
      ],
      "stateMutability": "view",
      "type": "function"
    },
    {
      "inputs": [
        {
          "internalType": "uint256",
          "name": "tokenId",
          "type": "uint256"
        }
      ],
      "name": "getApproved",
      "outputs": [
        {
          "internalType": "address",
          "name": "",
          "type": "address"
        }
      ],
      "stateMutability": "view",
      "type": "function"
    },
    {
      "inputs": [
        {
          "internalType": "uint256",
          "name": "index",
          "type": "uint256"
        }
      ],
      "name": "getOwnershipAt",
      "outputs": [
        {
          "components": [
            {
              "internalType": "address",
              "name": "addr",
              "type": "address"
            },
            {
              "internalType": "uint64",
              "name": "startTimestamp",
              "type": "uint64"
            },
            {
              "internalType": "bool",
              "name": "burned",
              "type": "bool"
            }
          ],
          "internalType": "struct IERC721A.TokenOwnership",
          "name": "",
          "type": "tuple"
        }
      ],
      "stateMutability": "view",
      "type": "function"
    },
    {
      "inputs": [
        {
          "internalType": "address",
          "name": "owner",
          "type": "address"
        },
        {
          "internalType": "address",
          "name": "operator",
          "type": "address"
        }
      ],
      "name": "isApprovedForAll",
      "outputs": [
        {
          "internalType": "bool",
          "name": "",
          "type": "bool"
        }
      ],
      "stateMutability": "view",
      "type": "function"
    },
    {
      "inputs": [],
      "name": "name",
      "outputs": [
        {
          "internalType": "string",
          "name": "",
          "type": "string"
        }
      ],
      "stateMutability": "view",
      "type": "function"
    },
    {
      "inputs": [
        {
          "internalType": "address",
          "name": "owner",
          "type": "address"
        }
      ],
      "name": "numberBurned",
      "outputs": [
        {
          "internalType": "uint256",
          "name": "",
          "type": "uint256"
        }
      ],
      "stateMutability": "view",
      "type": "function"
    },
    {
      "inputs": [
        {
          "internalType": "uint256",
          "name": "tokenId",
          "type": "uint256"
        }
      ],
      "name": "ownerOf",
      "outputs": [
        {
          "internalType": "address",
          "name": "",
          "type": "address"
        }
      ],
      "stateMutability": "view",
      "type": "function"
    },
    {
      "inputs": [
        {
          "internalType": "address",
          "name": "to",
          "type": "address"
        },
        {
          "internalType": "uint256",
          "name": "quantity",
          "type": "uint256"
        }
      ],
      "name": "safeMint",
      "outputs": [],
      "stateMutability": "nonpayable",
      "type": "function"
    },
    {
      "inputs": [
        {
          "internalType": "address",
          "name": "from",
          "type": "address"
        },
        {
          "internalType": "address",
          "name": "to",
          "type": "address"
        },
        {
          "internalType": "uint256",
          "name": "tokenId",
          "type": "uint256"
        }
      ],
      "name": "safeTransferFrom",
      "outputs": [],
      "stateMutability": "nonpayable",
      "type": "function"
    },
    {
      "inputs": [
        {
          "internalType": "address",
          "name": "from",
          "type": "address"
        },
        {
          "internalType": "address",
          "name": "to",
          "type": "address"
        },
        {
          "internalType": "uint256",
          "name": "tokenId",
          "type": "uint256"
        },
        {
          "internalType": "bytes",
          "name": "_data",
          "type": "bytes"
        }
      ],
      "name": "safeTransferFrom",
      "outputs": [],
      "stateMutability": "nonpayable",
      "type": "function"
    },
    {
      "inputs": [
        {
          "internalType": "address",
          "name": "operator",
          "type": "address"
        },
        {
          "internalType": "bool",
          "name": "approved",
          "type": "bool"
        }
      ],
      "name": "setApprovalForAll",
      "outputs": [],
      "stateMutability": "nonpayable",
      "type": "function"
    },
    {
      "inputs": [
        {
          "internalType": "bytes4",
          "name": "interfaceId",
          "type": "bytes4"
        }
      ],
      "name": "supportsInterface",
      "outputs": [
        {
          "internalType": "bool",
          "name": "",
          "type": "bool"
        }
      ],
      "stateMutability": "view",
      "type": "function"
    },
    {
      "inputs": [],
      "name": "symbol",
      "outputs": [
        {
          "internalType": "string",
          "name": "",
          "type": "string"
        }
      ],
      "stateMutability": "view",
      "type": "function"
    },
    {
      "inputs": [
        {
          "internalType": "uint256",
          "name": "tokenId",
          "type": "uint256"
        }
      ],
      "name": "tokenURI",
      "outputs": [
        {
          "internalType": "string",
          "name": "",
          "type": "string"
        }
      ],
      "stateMutability": "view",
      "type": "function"
    },
    {
      "inputs": [],
      "name": "totalBurned",
      "outputs": [
        {
          "internalType": "uint256",
          "name": "",
          "type": "uint256"
        }
      ],
      "stateMutability": "view",
      "type": "function"
    },
    {
      "inputs": [],
      "name": "totalMinted",
      "outputs": [
        {
          "internalType": "uint256",
          "name": "",
          "type": "uint256"
        }
      ],
      "stateMutability": "view",
      "type": "function"
    },
    {
      "inputs": [],
      "name": "totalSupply",
      "outputs": [
        {
          "internalType": "uint256",
          "name": "",
          "type": "uint256"
        }
      ],
      "stateMutability": "view",
      "type": "function"
    },
    {
      "inputs": [
        {
          "internalType": "address",
          "name": "from",
          "type": "address"
        },
        {
          "internalType": "address",
          "name": "to",
          "type": "address"
        },
        {
          "internalType": "uint256",
          "name": "tokenId",
          "type": "uint256"
        }
      ],
      "name": "transferFrom",
      "outputs": [],
      "stateMutability": "nonpayable",
      "type": "function"
    }
  ],
  "bytecode": "0x60806040523480156200001157600080fd5b506040516200153c3803806200153c8339810160408190526200003491620001e6565b8151829082906200004d90600290602085019062000073565b5080516200006390600390602084019062000073565b5060008055506200028d92505050565b828054620000819062000250565b90600052602060002090601f016020900481019282620000a55760008555620000f0565b82601f10620000c057805160ff1916838001178555620000f0565b82800160010185558215620000f0579182015b82811115620000f0578251825591602001919060010190620000d3565b50620000fe92915062000102565b5090565b5b80821115620000fe576000815560010162000103565b634e487b7160e01b600052604160045260246000fd5b600082601f8301126200014157600080fd5b81516001600160401b03808211156200015e576200015e62000119565b604051601f8301601f19908116603f0116810190828211818310171562000189576200018962000119565b81604052838152602092508683858801011115620001a657600080fd5b600091505b83821015620001ca5785820183015181830184015290820190620001ab565b83821115620001dc5760008385830101525b9695505050505050565b60008060408385031215620001fa57600080fd5b82516001600160401b03808211156200021257600080fd5b62000220868387016200012f565b935060208501519150808211156200023757600080fd5b5062000246858286016200012f565b9150509250929050565b600181811c908216806200026557607f821691505b602082108114156200028757634e487b7160e01b600052602260045260246000fd5b50919050565b61129f806200029d6000396000f3fe608060405234801561001057600080fd5b50600436106101775760003560e01c80636352211e116100d8578063a2309ff81161008c578063d89135cd11610066578063d89135cd146102f0578063e985e9c5146102f8578063f25236331461033457600080fd5b8063a2309ff8146102c2578063b88d4fde146102ca578063c87b56dd146102dd57600080fd5b806395d89b41116100bd57806395d89b4114610294578063a14481941461029c578063a22cb465146102af57600080fd5b80636352211e1461026e57806370a082311461028157600080fd5b806323b872dd1161012f57806342842e0e1161011457806342842e0e1461023557806342966c68146102485780634f558e791461025b57600080fd5b806323b872dd1461020f5780632478d6391461022257600080fd5b8063081812fc11610160578063081812fc146101b9578063095ea7b3146101e457806318160ddd146101f957600080fd5b806301ffc9a71461017c57806306fdde03146101a4575b600080fd5b61018f61018a366004610ec4565b61037e565b60405190151581526020015b60405180910390f35b6101ac6103d0565b60405161019b9190610f39565b6101cc6101c7366004610f4c565b610462565b6040516001600160a01b03909116815260200161019b565b6101f76101f2366004610f81565b6104a6565b005b600154600054035b60405190815260200161019b565b6101f761021d366004610fab565b610553565b610201610230366004610fe7565b610563565b6101f7610243366004610fab565b610591565b6101f7610256366004610f4c565b6105ac565b61018f610269366004610f4c565b6105ba565b6101cc61027c366004610f4c565b6105c5565b61020161028f366004610fe7565b6105d0565b6101ac610616565b6101f76102aa366004610f81565b610625565b6101f76102bd366004611002565b610633565b600054610201565b6101f76102d8366004611054565b6106ce565b6101ac6102eb366004610f4c565b610718565b61020161079d565b61018f610306366004611130565b6001600160a01b03918216600090815260076020908152604080832093909416825291909152205460ff1690565b610347610342366004610f4c565b6107a8565b6040805182516001600160a01b0316815260208084015167ffffffffffffffff16908201529181015115159082015260600161019b565b60006301ffc9a760e01b6001600160e01b0319831614806103af57506380ac58cd60e01b6001600160e01b03198316145b806103ca5750635b5e139f60e01b6001600160e01b03198316145b92915050565b6060600280546103df90611163565b80601f016020809104026020016040519081016040528092919081815260200182805461040b90611163565b80156104585780601f1061042d57610100808354040283529160200191610458565b820191906000526020600020905b81548152906001019060200180831161043b57829003601f168201915b5050505050905090565b600061046d826107ce565b61048a576040516333d1c03960e21b815260040160405180910390fd5b506000908152600660205260409020546001600160a01b031690565b60006104b1826107f5565b9050336001600160a01b038216146104ea576104cd8133610306565b6104ea576040516367d9dca160e11b815260040160405180910390fd5b600082815260066020526040808220805473ffffffffffffffffffffffffffffffffffffffff19166001600160a01b0387811691821790925591518593918516917f8c5be1e5ebec7d5bd14f71427d1e84f3dd0314c0f7b2291e5b200ac8c7c3b92591a4505050565b61055e838383610856565b505050565b60006103ca826001600160a01b031660009081526005602052604090205460801c67ffffffffffffffff1690565b61055e838383604051806020016040528060008152506106ce565b6105b7816001610a13565b50565b60006103ca826107ce565b60006103ca826107f5565b6000816105f0576040516323d3ad8160e21b815260040160405180910390fd5b506001600160a01b031660009081526005602052604090205467ffffffffffffffff1690565b6060600380546103df90611163565b61062f8282610b93565b5050565b6001600160a01b03821633141561065d5760405163b06307db60e01b815260040160405180910390fd5b3360008181526007602090815260408083206001600160a01b03871680855290835292819020805460ff191686151590811790915590519081529192917f17307eab39ab6107e8899845ad3d59bd9653f200f220920489ca2b5937696c31910160405180910390a35050565b905090565b6106d9848484610856565b6001600160a01b0383163b15610712576106f584848484610bad565b610712576040516368d2bf6b60e11b815260040160405180910390fd5b50505050565b6060610723826107ce565b61074057604051630a14c4b560e41b815260040160405180910390fd5b600061074a610c95565b905080516000141561076b5760405180602001604052806000815250610796565b8061077584610cb5565b60405160200161078692919061119e565b6040516020818303038152906040525b9392505050565b60006106c960015490565b60408051606081018252600080825260208201819052918101919091526103ca82610d04565b60008054821080156103ca575050600090815260046020526040902054600160e01b161590565b60008160005481101561083d57600081815260046020526040902054600160e01b811661083b575b8061079657506000190160008181526004602052604090205461081d565b505b604051636f96cda160e11b815260040160405180910390fd5b6000610861826107f5565b9050836001600160a01b0316816001600160a01b0316146108945760405162a1148160e81b815260040160405180910390fd5b6000828152600660205260408120546001600160a01b03908116919086163314806108c457506108c48633610306565b806108d757506001600160a01b03821633145b9050806108f757604051632ce44b5f60e11b815260040160405180910390fd5b8461091557604051633a954ecd60e21b815260040160405180910390fd5b8115610945576000848152600660205260409020805473ffffffffffffffffffffffffffffffffffffffff191690555b6001600160a01b03868116600090815260056020908152604080832080546000190190559288168252828220805460010190558682526004905220600160e11b4260a01b8717811790915583166109ca57600184016000818152600460205260409020546109c85760005481146109c85760008181526004602052604090208490555b505b83856001600160a01b0316876001600160a01b03167fddf252ad1be2c89b69c2b068fc378daa952ba7f163c4a11628f55a4df523b3ef60405160405180910390a4505050505050565b6000610a1e836107f5565b60008481526006602052604090205490915081906001600160a01b03168315610a94576000336001600160a01b0384161480610a5f5750610a5f8333610306565b80610a7257506001600160a01b03821633145b905080610a9257604051632ce44b5f60e11b815260040160405180910390fd5b505b8015610ac4576000858152600660205260409020805473ffffffffffffffffffffffffffffffffffffffff191690555b6001600160a01b038216600090815260056020908152604080832080546fffffffffffffffffffffffffffffffff01905587835260049091529020600360e01b4260a01b8417179055600160e11b8316610b4c5760018501600081815260046020526040902054610b4a576000548114610b4a5760008181526004602052604090208490555b505b60405185906000906001600160a01b038516907fddf252ad1be2c89b69c2b068fc378daa952ba7f163c4a11628f55a4df523b3ef908390a450506001805481019055505050565b61062f828260405180602001604052806000815250610d6f565b604051630a85bd0160e11b81526000906001600160a01b0385169063150b7a0290610be29033908990889088906004016111cd565b6020604051808303816000875af1925050508015610c1d575060408051601f3d908101601f19168201909252610c1a91810190611209565b60015b610c78573d808015610c4b576040519150601f19603f3d011682016040523d82523d6000602084013e610c50565b606091505b508051610c70576040516368d2bf6b60e11b815260040160405180910390fd5b805181602001fd5b6001600160e01b031916630a85bd0160e11b149050949350505050565b606060405180608001604052806043815260200161122760439139905090565b604080516080810191829052607f0190826030600a8206018353600a90045b8015610cf257600183039250600a81066030018353600a9004610cd4565b50819003601f19909101908152919050565b60408051606081018252600080825260208201819052918101919091526000828152600460205260409020546103ca90604080516060810182526001600160a01b038316815260a083901c67ffffffffffffffff166020820152600160e01b90921615159082015290565b610d798383610ddc565b6001600160a01b0383163b1561055e576000548281035b610da36000868380600101945086610bad565b610dc0576040516368d2bf6b60e11b815260040160405180910390fd5b818110610d90578160005414610dd557600080fd5b5050505050565b60005482610dfc57604051622e076360e81b815260040160405180910390fd5b81610e1a5760405163b562e8dd60e01b815260040160405180910390fd5b6001600160a01b03831660009081526005602090815260408083208054680100000000000000018702019055838352600490915281204260a01b85176001851460e11b1790555b60405160018201918301906001600160a01b038616906000907fddf252ad1be2c89b69c2b068fc378daa952ba7f163c4a11628f55a4df523b3ef908290a4828110610e6157500160005550565b6001600160e01b0319811681146105b757600080fd5b600060208284031215610ed657600080fd5b813561079681610eae565b60005b83811015610efc578181015183820152602001610ee4565b838111156107125750506000910152565b60008151808452610f25816020860160208601610ee1565b601f01601f19169290920160200192915050565b6020815260006107966020830184610f0d565b600060208284031215610f5e57600080fd5b5035919050565b80356001600160a01b0381168114610f7c57600080fd5b919050565b60008060408385031215610f9457600080fd5b610f9d83610f65565b946020939093013593505050565b600080600060608486031215610fc057600080fd5b610fc984610f65565b9250610fd760208501610f65565b9150604084013590509250925092565b600060208284031215610ff957600080fd5b61079682610f65565b6000806040838503121561101557600080fd5b61101e83610f65565b91506020830135801515811461103357600080fd5b809150509250929050565b634e487b7160e01b600052604160045260246000fd5b6000806000806080858703121561106a57600080fd5b61107385610f65565b935061108160208601610f65565b925060408501359150606085013567ffffffffffffffff808211156110a557600080fd5b818701915087601f8301126110b957600080fd5b8135818111156110cb576110cb61103e565b604051601f8201601f19908116603f011681019083821181831017156110f3576110f361103e565b816040528281528a602084870101111561110c57600080fd5b82602086016020830137600060208483010152809550505050505092959194509250565b6000806040838503121561114357600080fd5b61114c83610f65565b915061115a60208401610f65565b90509250929050565b600181811c9082168061117757607f821691505b6020821081141561119857634e487b7160e01b600052602260045260246000fd5b50919050565b600083516111b0818460208801610ee1565b8351908301906111c4818360208801610ee1565b01949350505050565b60006001600160a01b038087168352808616602084015250836040830152608060608301526111ff6080830184610f0d565b9695505050505050565b60006020828403121561121b57600080fd5b815161079681610eae56fe697066733a2f2f6261667962656965696134716b327063326b6f6f643664327a6876616733753472686d7a6d73667862736c6e796e6a6761656671677468687676712fa26469706673582212205051c56a84fa2fb519ae03e035d50b2d76b763ffa57e764d43d6ace38d76036f64736f6c634300080b0033",
  "linkReferences": {},
  "deployedLinkReferences": {}
}