{
  "_format": "hh-sol-artifact-1",
  "contractName": "ERC721AMock",
  "sourceName": "contracts/mocks/ERC721AMock.sol",
  "abi": [
    {
      "inputs": [
        {
          "internalType": "string",
          "name": "name_",
          "type": "string"
        },
        {
          "internalType": "string",
          "name": "symbol_",
          "type": "string"
        }
      ],
      "stateMutability": "nonpayable",
      "type": "constructor"
    },
    {
      "inputs": [],
      "name": "ApprovalCallerNotOwnerNorApproved",
      "type": "error"
    },
    {
      "inputs": [],
      "name": "ApprovalQueryForNonexistentToken",
      "type": "error"
    },
    {
      "inputs": [],
      "name": "ApproveToCaller",
      "type": "error"
    },
    {
      "inputs": [],
      "name": "BalanceQueryForZeroAddress",
      "type": "error"
    },
    {
      "inputs": [],
      "name": "MintToZeroAddress",
      "type": "error"
    },
    {
      "inputs": [],
      "name": "MintZeroQuantity",
      "type": "error"
    },
    {
      "inputs": [],
      "name": "OwnerQueryForNonexistentToken",
      "type": "error"
    },
    {
      "inputs": [],
      "name": "TransferCallerNotOwnerNorApproved",
      "type": "error"
    },
    {
      "inputs": [],
      "name": "TransferFromIncorrectOwner",
      "type": "error"
    },
    {
      "inputs": [],
      "name": "TransferToNonERC721ReceiverImplementer",
      "type": "error"
    },
    {
      "inputs": [],
      "name": "TransferToZeroAddress",
      "type": "error"
    },
    {
      "inputs": [],
      "name": "URIQueryForNonexistentToken",
      "type": "error"
    },
    {
      "anonymous": false,
      "inputs": [
        {
          "indexed": true,
          "internalType": "address",
          "name": "owner",
          "type": "address"
        },
        {
          "indexed": true,
          "internalType": "address",
          "name": "approved",
          "type": "address"
        },
        {
          "indexed": true,
          "internalType": "uint256",
          "name": "tokenId",
          "type": "uint256"
        }
      ],
      "name": "Approval",
      "type": "event"
    },
    {
      "anonymous": false,
      "inputs": [
        {
          "indexed": true,
          "internalType": "address",
          "name": "owner",
          "type": "address"
        },
        {
          "indexed": true,
          "internalType": "address",
          "name": "operator",
          "type": "address"
        },
        {
          "indexed": false,
          "internalType": "bool",
          "name": "approved",
          "type": "bool"
        }
      ],
      "name": "ApprovalForAll",
      "type": "event"
    },
    {
      "anonymous": false,
      "inputs": [
        {
          "indexed": true,
          "internalType": "address",
          "name": "from",
          "type": "address"
        },
        {
          "indexed": true,
          "internalType": "address",
          "name": "to",
          "type": "address"
        },
        {
          "indexed": true,
          "internalType": "uint256",
          "name": "tokenId",
          "type": "uint256"
        }
      ],
      "name": "Transfer",
      "type": "event"
    },
    {
      "inputs": [
        {
          "internalType": "address",
          "name": "to",
          "type": "address"
        },
        {
          "internalType": "uint256",
          "name": "tokenId",
          "type": "uint256"
        }
      ],
      "name": "approve",
      "outputs": [],
      "stateMutability": "nonpayable",
      "type": "function"
    },
    {
      "inputs": [
        {
          "internalType": "address",
          "name": "owner",
          "type": "address"
        }
      ],
      "name": "balanceOf",
      "outputs": [
        {
          "internalType": "uint256",
          "name": "",
          "type": "uint256"
        }
      ],
      "stateMutability": "view",
      "type": "function"
    },
    {
      "inputs": [],
      "name": "baseURI",
      "outputs": [
        {
          "internalType": "string",
          "name": "",
          "type": "string"
        }
      ],
      "stateMutability": "view",
      "type": "function"
    },
    {
      "inputs": [
        {
          "internalType": "uint256",
          "name": "tokenId",
          "type": "uint256"
        }
      ],
      "name": "burn",
      "outputs": [],
      "stateMutability": "nonpayable",
      "type": "function"
    },
    {
      "inputs": [
        {
          "internalType": "uint256",
          "name": "tokenId",
          "type": "uint256"
        },
        {
          "internalType": "bool",
          "name": "approvalCheck",
          "type": "bool"
        }
      ],
      "name": "burn",
      "outputs": [],
      "stateMutability": "nonpayable",
      "type": "function"
    },
    {
      "inputs": [
        {
          "internalType": "uint256",
          "name": "tokenId",
          "type": "uint256"
        }
      ],
      "name": "exists",
      "outputs": [
        {
          "internalType": "bool",
          "name": "",
          "type": "bool"
        }
      ],
      "stateMutability": "view",
      "type": "function"
    },
    {
      "inputs": [
        {
          "internalType": "uint256",
          "name": "tokenId",
          "type": "uint256"
        }
      ],
      "name": "getApproved",
      "outputs": [
        {
          "internalType": "address",
          "name": "",
          "type": "address"
        }
      ],
      "stateMutability": "view",
      "type": "function"
    },
    {
      "inputs": [
        {
          "internalType": "address",
          "name": "owner",
          "type": "address"
        }
      ],
      "name": "getAux",
      "outputs": [
        {
          "internalType": "uint64",
          "name": "",
          "type": "uint64"
        }
      ],
      "stateMutability": "view",
      "type": "function"
    },
    {
      "inputs": [
        {
          "internalType": "uint256",
          "name": "index",
          "type": "uint256"
        }
      ],
      "name": "getOwnershipAt",
      "outputs": [
        {
          "components": [
            {
              "internalType": "address",
              "name": "addr",
              "type": "address"
            },
            {
              "internalType": "uint64",
              "name": "startTimestamp",
              "type": "uint64"
            },
            {
              "internalType": "bool",
              "name": "burned",
              "type": "bool"
            }
          ],
          "internalType": "struct IERC721A.TokenOwnership",
          "name": "",
          "type": "tuple"
        }
      ],
      "stateMutability": "view",
      "type": "function"
    },
    {
      "inputs": [
        {
          "internalType": "uint256",
          "name": "index",
          "type": "uint256"
        }
      ],
      "name": "getOwnershipOf",
      "outputs": [
        {
          "components": [
            {
              "internalType": "address",
              "name": "addr",
              "type": "address"
            },
            {
              "internalType": "uint64",
              "name": "startTimestamp",
              "type": "uint64"
            },
            {
              "internalType": "bool",
              "name": "burned",
              "type": "bool"
            }
          ],
          "internalType": "struct IERC721A.TokenOwnership",
          "name": "",
          "type": "tuple"
        }
      ],
      "stateMutability": "view",
      "type": "function"
    },
    {
      "inputs": [
        {
          "internalType": "uint256",
          "name": "index",
          "type": "uint256"
        }
      ],
      "name": "initializeOwnershipAt",
      "outputs": [],
      "stateMutability": "nonpayable",
      "type": "function"
    },
    {
      "inputs": [
        {
          "internalType": "address",
          "name": "owner",
          "type": "address"
        },
        {
          "internalType": "address",
          "name": "operator",
          "type": "address"
        }
      ],
      "name": "isApprovedForAll",
      "outputs": [
        {
          "internalType": "bool",
          "name": "",
          "type": "bool"
        }
      ],
      "stateMutability": "view",
      "type": "function"
    },
    {
      "inputs": [
        {
          "internalType": "address",
          "name": "to",
          "type": "address"
        },
        {
          "internalType": "uint256",
          "name": "quantity",
          "type": "uint256"
        }
      ],
      "name": "mint",
      "outputs": [],
      "stateMutability": "nonpayable",
      "type": "function"
    },
    {
      "inputs": [],
      "name": "name",
      "outputs": [
        {
          "internalType": "string",
          "name": "",
          "type": "string"
        }
      ],
      "stateMutability": "view",
      "type": "function"
    },
    {
      "inputs": [],
      "name": "nextTokenId",
      "outputs": [
        {
          "internalType": "uint256",
          "name": "",
          "type": "uint256"
        }
      ],
      "stateMutability": "view",
      "type": "function"
    },
    {
      "inputs": [
        {
          "internalType": "address",
          "name": "owner",
          "type": "address"
        }
      ],
      "name": "numberMinted",
      "outputs": [
        {
          "internalType": "uint256",
          "name": "",
          "type": "uint256"
        }
      ],
      "stateMutability": "view",
      "type": "function"
    },
    {
      "inputs": [
        {
          "internalType": "uint256",
          "name": "tokenId",
          "type": "uint256"
        }
      ],
      "name": "ownerOf",
      "outputs": [
        {
          "internalType": "address",
          "name": "",
          "type": "address"
        }
      ],
      "stateMutability": "view",
      "type": "function"
    },
    {
      "inputs": [
        {
          "internalType": "address",
          "name": "to",
          "type": "address"
        },
        {
          "internalType": "uint256",
          "name": "quantity",
          "type": "uint256"
        },
        {
          "internalType": "bytes",
          "name": "_data",
          "type": "bytes"
        }
      ],
      "name": "safeMint",
      "outputs": [],
      "stateMutability": "nonpayable",
      "type": "function"
    },
    {
      "inputs": [
        {
          "internalType": "address",
          "name": "to",
          "type": "address"
        },
        {
          "internalType": "uint256",
          "name": "quantity",
          "type": "uint256"
        }
      ],
      "name": "safeMint",
      "outputs": [],
      "stateMutability": "nonpayable",
      "type": "function"
    },
    {
      "inputs": [
        {
          "internalType": "address",
          "name": "from",
          "type": "address"
        },
        {
          "internalType": "address",
          "name": "to",
          "type": "address"
        },
        {
          "internalType": "uint256",
          "name": "tokenId",
          "type": "uint256"
        }
      ],
      "name": "safeTransferFrom",
      "outputs": [],
      "stateMutability": "nonpayable",
      "type": "function"
    },
    {
      "inputs": [
        {
          "internalType": "address",
          "name": "from",
          "type": "address"
        },
        {
          "internalType": "address",
          "name": "to",
          "type": "address"
        },
        {
          "internalType": "uint256",
          "name": "tokenId",
          "type": "uint256"
        },
        {
          "internalType": "bytes",
          "name": "_data",
          "type": "bytes"
        }
      ],
      "name": "safeTransferFrom",
      "outputs": [],
      "stateMutability": "nonpayable",
      "type": "function"
    },
    {
      "inputs": [
        {
          "internalType": "address",
          "name": "operator",
          "type": "address"
        },
        {
          "internalType": "bool",
          "name": "approved",
          "type": "bool"
        }
      ],
      "name": "setApprovalForAll",
      "outputs": [],
      "stateMutability": "nonpayable",
      "type": "function"
    },
    {
      "inputs": [
        {
          "internalType": "address",
          "name": "owner",
          "type": "address"
        },
        {
          "internalType": "uint64",
          "name": "aux",
          "type": "uint64"
        }
      ],
      "name": "setAux",
      "outputs": [],
      "stateMutability": "nonpayable",
      "type": "function"
    },
    {
      "inputs": [
        {
          "internalType": "bytes4",
          "name": "interfaceId",
          "type": "bytes4"
        }
      ],
      "name": "supportsInterface",
      "outputs": [
        {
          "internalType": "bool",
          "name": "",
          "type": "bool"
        }
      ],
      "stateMutability": "view",
      "type": "function"
    },
    {
      "inputs": [],
      "name": "symbol",
      "outputs": [
        {
          "internalType": "string",
          "name": "",
          "type": "string"
        }
      ],
      "stateMutability": "view",
      "type": "function"
    },
    {
      "inputs": [
        {
          "internalType": "uint256",
          "name": "x",
          "type": "uint256"
        }
      ],
      "name": "toString",
      "outputs": [
        {
          "internalType": "string",
          "name": "",
          "type": "string"
        }
      ],
      "stateMutability": "pure",
      "type": "function"
    },
    {
      "inputs": [
        {
          "internalType": "uint256",
          "name": "tokenId",
          "type": "uint256"
        }
      ],
      "name": "tokenURI",
      "outputs": [
        {
          "internalType": "string",
          "name": "",
          "type": "string"
        }
      ],
      "stateMutability": "view",
      "type": "function"
    },
    {
      "inputs": [],
      "name": "totalBurned",
      "outputs": [
        {
          "internalType": "uint256",
          "name": "",
          "type": "uint256"
        }
      ],
      "stateMutability": "view",
      "type": "function"
    },
    {
      "inputs": [],
      "name": "totalMinted",
      "outputs": [
        {
          "internalType": "uint256",
          "name": "",
          "type": "uint256"
        }
      ],
      "stateMutability": "view",
      "type": "function"
    },
    {
      "inputs": [],
      "name": "totalSupply",
      "outputs": [
        {
          "internalType": "uint256",
          "name": "",
          "type": "uint256"
        }
      ],
      "stateMutability": "view",
      "type": "function"
    },
    {
      "inputs": [
        {
          "internalType": "address",
          "name": "from",
          "type": "address"
        },
        {
          "internalType": "address",
          "name": "to",
          "type": "address"
        },
        {
          "internalType": "uint256",
          "name": "tokenId",
          "type": "uint256"
        }
      ],
      "name": "transferFrom",
      "outputs": [],
      "stateMutability": "nonpayable",
      "type": "function"
    }
  ],
  "bytecode": "0x60806040523480156200001157600080fd5b506040516200188c3803806200188c8339810160408190526200003491620001e6565b8151829082906200004d90600290602085019062000073565b5080516200006390600390602084019062000073565b5060008055506200028d92505050565b828054620000819062000250565b90600052602060002090601f016020900481019282620000a55760008555620000f0565b82601f10620000c057805160ff1916838001178555620000f0565b82800160010185558215620000f0579182015b82811115620000f0578251825591602001919060010190620000d3565b50620000fe92915062000102565b5090565b5b80821115620000fe576000815560010162000103565b634e487b7160e01b600052604160045260246000fd5b600082601f8301126200014157600080fd5b81516001600160401b03808211156200015e576200015e62000119565b604051601f8301601f19908116603f0116810190828211818310171562000189576200018962000119565b81604052838152602092508683858801011115620001a657600080fd5b600091505b83821015620001ca5785820183015181830184015290820190620001ab565b83821115620001dc5760008385830101525b9695505050505050565b60008060408385031215620001fa57600080fd5b82516001600160401b03808211156200021257600080fd5b62000220868387016200012f565b935060208501519150808211156200023757600080fd5b5062000246858286016200012f565b9150509250929050565b600181811c908216806200026557607f821691505b602082108114156200028757634e487b7160e01b600052602260045260246000fd5b50919050565b6115ef806200029d6000396000f3fe608060405234801561001057600080fd5b50600436106101e55760003560e01c80636c0360eb1161010f578063a2309ff8116100a2578063d89135cd11610071578063d89135cd14610478578063dc33e68114610480578063e985e9c514610493578063f2523633146104cf57600080fd5b8063a2309ff8146103ca578063b88d4fde14610426578063bf0b175e14610439578063c87b56dd1461046557600080fd5b806395d89b41116100de57806395d89b41146103e55780639fac68cb146103ed578063a144819414610400578063a22cb4651461041357600080fd5b80636c0360eb146103af57806370a08231146103b757806375794a3c146103ca5780638832e6e3146103d257600080fd5b806342842e0e1161018757806352d8a4d11161015657806352d8a4d11461032c57806353b1233d146103765780636352211e146103895780636900a3ae1461039c57600080fd5b806342842e0e146102a357806342966c68146102b6578063453ab141146102c95780634f558e791461031957600080fd5b8063095ea7b3116101c3578063095ea7b31461025257806318160ddd1461026757806323b872dd1461027d57806340c10f191461029057600080fd5b806301ffc9a7146101ea57806306fdde0314610212578063081812fc14610227575b600080fd5b6101fd6101f836600461113f565b6104e2565b60405190151581526020015b60405180910390f35b61021a610534565b60405161020991906111b4565b61023a6102353660046111c7565b6105c6565b6040516001600160a01b039091168152602001610209565b6102656102603660046111fc565b61060a565b005b600154600054035b604051908152602001610209565b61026561028b366004611226565b6106b7565b61026561029e3660046111fc565b6106c7565b6102656102b1366004611226565b6106d5565b6102656102c43660046111c7565b6106f0565b6102656102d7366004611262565b6001600160a01b0382166000908152600560205260409020805460c083901b77ffffffffffffffffffffffffffffffffffffffffffffffff9091161790555050565b6101fd6103273660046111c7565b6106fc565b61033f61033a3660046111c7565b610707565b6040805182516001600160a01b0316815260208084015167ffffffffffffffff169082015291810151151590820152606001610209565b6102656103843660046111c7565b61072d565b61023a6103973660046111c7565b610736565b61021a6103aa3660046111c7565b610741565b61021a61074c565b61026f6103c53660046112a6565b61075b565b60005461026f565b6102656103e0366004611364565b6107a1565b61021a6107ac565b6102656103fb3660046113cb565b6107bb565b61026561040e3660046111fc565b6107c5565b6102656104213660046113f7565b6107cf565b610265610434366004611421565b610865565b61044c6104473660046112a6565b6108af565b60405167ffffffffffffffff9091168152602001610209565b61021a6104733660046111c7565b6108d0565b61026f610955565b61026f61048e3660046112a6565b610960565b6101fd6104a1366004611489565b6001600160a01b03918216600090815260076020908152604080832093909416825291909152205460ff1690565b61033f6104dd3660046111c7565b61098b565b60006301ffc9a760e01b6001600160e01b03198316148061051357506380ac58cd60e01b6001600160e01b03198316145b8061052e5750635b5e139f60e01b6001600160e01b03198316145b92915050565b606060028054610543906114b3565b80601f016020809104026020016040519081016040528092919081815260200182805461056f906114b3565b80156105bc5780601f10610591576101008083540402835291602001916105bc565b820191906000526020600020905b81548152906001019060200180831161059f57829003601f168201915b5050505050905090565b60006105d182610a17565b6105ee576040516333d1c03960e21b815260040160405180910390fd5b506000908152600660205260409020546001600160a01b031690565b600061061582610a3e565b9050336001600160a01b0382161461064e5761063181336104a1565b61064e576040516367d9dca160e11b815260040160405180910390fd5b600082815260066020526040808220805473ffffffffffffffffffffffffffffffffffffffff19166001600160a01b0387811691821790925591518593918516917f8c5be1e5ebec7d5bd14f71427d1e84f3dd0314c0f7b2291e5b200ac8c7c3b92591a4505050565b6106c2838383610a9f565b505050565b6106d18282610c5c565b5050565b6106c283838360405180602001604052806000815250610865565b6106f981610d2e565b50565b600061052e82610a17565b604080516060810182526000808252602082018190529181019190915261052e82610d39565b6106f981610d9d565b600061052e82610a3e565b606061052e82610dcb565b6060610756610e1a565b905090565b60008161077b576040516323d3ad8160e21b815260040160405180910390fd5b506001600160a01b031660009081526005602052604090205467ffffffffffffffff1690565b6106c2838383610e3a565b606060038054610543906114b3565b6106d18282610ea7565b6106d18282611027565b6001600160a01b0382163314156107f95760405163b06307db60e01b815260040160405180910390fd5b3360008181526007602090815260408083206001600160a01b03871680855290835292819020805460ff191686151590811790915590519081529192917f17307eab39ab6107e8899845ad3d59bd9653f200f220920489ca2b5937696c31910160405180910390a35050565b610870848484610a9f565b6001600160a01b0383163b156108a95761088c84848484611041565b6108a9576040516368d2bf6b60e11b815260040160405180910390fd5b50505050565b6001600160a01b03811660009081526005602052604081205460c01c61052e565b60606108db82610a17565b6108f857604051630a14c4b560e41b815260040160405180910390fd5b6000610902610e1a565b9050805160001415610923576040518060200160405280600081525061094e565b8061092d84610dcb565b60405160200161093e9291906114ee565b6040516020818303038152906040525b9392505050565b600061075660015490565b6001600160a01b0381166000908152600560205260408082205467ffffffffffffffff911c1661052e565b604080516060810182526000808252602082018190529181019190915261052e82604080516060810182526000808252602082018190529181019190915260008281526004602052604090205461052e90604080516060810182526001600160a01b038316815260a083901c67ffffffffffffffff166020820152600160e01b90921615159082015290565b600080548210801561052e575050600090815260046020526040902054600160e01b161590565b600081600054811015610a8657600081815260046020526040902054600160e01b8116610a84575b8061094e575060001901600081815260046020526040902054610a66565b505b604051636f96cda160e11b815260040160405180910390fd5b6000610aaa82610a3e565b9050836001600160a01b0316816001600160a01b031614610add5760405162a1148160e81b815260040160405180910390fd5b6000828152600660205260408120546001600160a01b0390811691908616331480610b0d5750610b0d86336104a1565b80610b2057506001600160a01b03821633145b905080610b4057604051632ce44b5f60e11b815260040160405180910390fd5b84610b5e57604051633a954ecd60e21b815260040160405180910390fd5b8115610b8e576000848152600660205260409020805473ffffffffffffffffffffffffffffffffffffffff191690555b6001600160a01b03868116600090815260056020908152604080832080546000190190559288168252828220805460010190558682526004905220600160e11b4260a01b871781179091558316610c135760018401600081815260046020526040902054610c11576000548114610c115760008181526004602052604090208490555b505b83856001600160a01b0316876001600160a01b03167fddf252ad1be2c89b69c2b068fc378daa952ba7f163c4a11628f55a4df523b3ef60405160405180910390a4505050505050565b60005482610c7c57604051622e076360e81b815260040160405180910390fd5b81610c9a5760405163b562e8dd60e01b815260040160405180910390fd5b6001600160a01b03831660009081526005602090815260408083208054680100000000000000018702019055838352600490915281204260a01b85176001851460e11b1790555b60405160018201918301906001600160a01b038616906000907fddf252ad1be2c89b69c2b068fc378daa952ba7f163c4a11628f55a4df523b3ef908290a4828110610ce157500160005550565b6106f9816000610ea7565b604080516060810182526000808252602082018190529181019190915261052e610d6283610a3e565b604080516060810182526001600160a01b038316815260a083901c67ffffffffffffffff166020820152600160e01b90921615159082015290565b6000818152600460205260409020546106f957610db981610a3e565b60008281526004602052604090205550565b604080516080810191829052607f0190826030600a8206018353600a90045b8015610e0857600183039250600a81066030018353600a9004610dea565b50819003601f19909101908152919050565b606060405180608001604052806043815260200161157760439139905090565b610e448383610c5c565b6001600160a01b0383163b156106c2576000548281035b610e6e6000868380600101945086611041565b610e8b576040516368d2bf6b60e11b815260040160405180910390fd5b818110610e5b578160005414610ea057600080fd5b5050505050565b6000610eb283610a3e565b60008481526006602052604090205490915081906001600160a01b03168315610f28576000336001600160a01b0384161480610ef35750610ef383336104a1565b80610f0657506001600160a01b03821633145b905080610f2657604051632ce44b5f60e11b815260040160405180910390fd5b505b8015610f58576000858152600660205260409020805473ffffffffffffffffffffffffffffffffffffffff191690555b6001600160a01b038216600090815260056020908152604080832080546fffffffffffffffffffffffffffffffff01905587835260049091529020600360e01b4260a01b8417179055600160e11b8316610fe05760018501600081815260046020526040902054610fde576000548114610fde5760008181526004602052604090208490555b505b60405185906000906001600160a01b038516907fddf252ad1be2c89b69c2b068fc378daa952ba7f163c4a11628f55a4df523b3ef908390a450506001805481019055505050565b6106d1828260405180602001604052806000815250610e3a565b604051630a85bd0160e11b81526000906001600160a01b0385169063150b7a029061107690339089908890889060040161151d565b6020604051808303816000875af19250505080156110b1575060408051601f3d908101601f191682019092526110ae91810190611559565b60015b61110c573d8080156110df576040519150601f19603f3d011682016040523d82523d6000602084013e6110e4565b606091505b508051611104576040516368d2bf6b60e11b815260040160405180910390fd5b805181602001fd5b6001600160e01b031916630a85bd0160e11b149050949350505050565b6001600160e01b0319811681146106f957600080fd5b60006020828403121561115157600080fd5b813561094e81611129565b60005b8381101561117757818101518382015260200161115f565b838111156108a95750506000910152565b600081518084526111a081602086016020860161115c565b601f01601f19169290920160200192915050565b60208152600061094e6020830184611188565b6000602082840312156111d957600080fd5b5035919050565b80356001600160a01b03811681146111f757600080fd5b919050565b6000806040838503121561120f57600080fd5b611218836111e0565b946020939093013593505050565b60008060006060848603121561123b57600080fd5b611244846111e0565b9250611252602085016111e0565b9150604084013590509250925092565b6000806040838503121561127557600080fd5b61127e836111e0565b9150602083013567ffffffffffffffff8116811461129b57600080fd5b809150509250929050565b6000602082840312156112b857600080fd5b61094e826111e0565b634e487b7160e01b600052604160045260246000fd5b600082601f8301126112e857600080fd5b813567ffffffffffffffff80821115611303576113036112c1565b604051601f8301601f19908116603f0116810190828211818310171561132b5761132b6112c1565b8160405283815286602085880101111561134457600080fd5b836020870160208301376000602085830101528094505050505092915050565b60008060006060848603121561137957600080fd5b611382846111e0565b925060208401359150604084013567ffffffffffffffff8111156113a557600080fd5b6113b1868287016112d7565b9150509250925092565b803580151581146111f757600080fd5b600080604083850312156113de57600080fd5b823591506113ee602084016113bb565b90509250929050565b6000806040838503121561140a57600080fd5b611413836111e0565b91506113ee602084016113bb565b6000806000806080858703121561143757600080fd5b611440856111e0565b935061144e602086016111e0565b925060408501359150606085013567ffffffffffffffff81111561147157600080fd5b61147d878288016112d7565b91505092959194509250565b6000806040838503121561149c57600080fd5b6114a5836111e0565b91506113ee602084016111e0565b600181811c908216806114c757607f821691505b602082108114156114e857634e487b7160e01b600052602260045260246000fd5b50919050565b6000835161150081846020880161115c565b83519083019061151481836020880161115c565b01949350505050565b60006001600160a01b0380871683528086166020840152508360408301526080606083015261154f6080830184611188565b9695505050505050565b60006020828403121561156b57600080fd5b815161094e8161112956fe697066733a2f2f6261667962656965696134716b327063326b6f6f643664327a6876616733753472686d7a6d73667862736c6e796e6a6761656671677468687676712fa26469706673582212208044cb3f36ed4d850a5664f5febc71a87b9fb2ef9c3e70d156d07a0791d8ba0264736f6c634300080b0033",
  "linkReferences": {},
  "deployedLinkReferences": {}
}