{
  "_format": "hh-sol-artifact-1",
  "contractName": "ERC721AQueryableStartTokenIdMock",
  "sourceName": "contracts/mocks/ERC721AQueryableStartTokenIdMock.sol",
  "abi": [
    {
      "inputs": [
        {
          "internalType": "string",
          "name": "name_",
          "type": "string"
        },
        {
          "internalType": "string",
          "name": "symbol_",
          "type": "string"
        },
        {
          "internalType": "uint256",
          "name": "startTokenId_",
          "type": "uint256"
        }
      ],
      "stateMutability": "nonpayable",
      "type": "constructor"
    },
    {
      "inputs": [],
      "name": "ApprovalCallerNotOwnerNorApproved",
      "type": "error"
    },
    {
      "inputs": [],
      "name": "ApprovalQueryForNonexistentToken",
      "type": "error"
    },
    {
      "inputs": [],
      "name": "ApproveToCaller",
      "type": "error"
    },
    {
      "inputs": [],
      "name": "BalanceQueryForZeroAddress",
      "type": "error"
    },
    {
      "inputs": [],
      "name": "InvalidQueryRange",
      "type": "error"
    },
    {
      "inputs": [],
      "name": "MintToZeroAddress",
      "type": "error"
    },
    {
      "inputs": [],
      "name": "MintZeroQuantity",
      "type": "error"
    },
    {
      "inputs": [],
      "name": "OwnerQueryForNonexistentToken",
      "type": "error"
    },
    {
      "inputs": [],
      "name": "TransferCallerNotOwnerNorApproved",
      "type": "error"
    },
    {
      "inputs": [],
      "name": "TransferFromIncorrectOwner",
      "type": "error"
    },
    {
      "inputs": [],
      "name": "TransferToNonERC721ReceiverImplementer",
      "type": "error"
    },
    {
      "inputs": [],
      "name": "TransferToZeroAddress",
      "type": "error"
    },
    {
      "inputs": [],
      "name": "URIQueryForNonexistentToken",
      "type": "error"
    },
    {
      "anonymous": false,
      "inputs": [
        {
          "indexed": true,
          "internalType": "address",
          "name": "owner",
          "type": "address"
        },
        {
          "indexed": true,
          "internalType": "address",
          "name": "approved",
          "type": "address"
        },
        {
          "indexed": true,
          "internalType": "uint256",
          "name": "tokenId",
          "type": "uint256"
        }
      ],
      "name": "Approval",
      "type": "event"
    },
    {
      "anonymous": false,
      "inputs": [
        {
          "indexed": true,
          "internalType": "address",
          "name": "owner",
          "type": "address"
        },
        {
          "indexed": true,
          "internalType": "address",
          "name": "operator",
          "type": "address"
        },
        {
          "indexed": false,
          "internalType": "bool",
          "name": "approved",
          "type": "bool"
        }
      ],
      "name": "ApprovalForAll",
      "type": "event"
    },
    {
      "anonymous": false,
      "inputs": [
        {
          "indexed": true,
          "internalType": "address",
          "name": "from",
          "type": "address"
        },
        {
          "indexed": true,
          "internalType": "address",
          "name": "to",
          "type": "address"
        },
        {
          "indexed": true,
          "internalType": "uint256",
          "name": "tokenId",
          "type": "uint256"
        }
      ],
      "name": "Transfer",
      "type": "event"
    },
    {
      "inputs": [
        {
          "internalType": "address",
          "name": "to",
          "type": "address"
        },
        {
          "internalType": "uint256",
          "name": "tokenId",
          "type": "uint256"
        }
      ],
      "name": "approve",
      "outputs": [],
      "stateMutability": "nonpayable",
      "type": "function"
    },
    {
      "inputs": [
        {
          "internalType": "address",
          "name": "owner",
          "type": "address"
        }
      ],
      "name": "balanceOf",
      "outputs": [
        {
          "internalType": "uint256",
          "name": "",
          "type": "uint256"
        }
      ],
      "stateMutability": "view",
      "type": "function"
    },
    {
      "inputs": [
        {
          "internalType": "uint256",
          "name": "tokenId",
          "type": "uint256"
        }
      ],
      "name": "burn",
      "outputs": [],
      "stateMutability": "nonpayable",
      "type": "function"
    },
    {
      "inputs": [
        {
          "internalType": "uint256",
          "name": "tokenId",
          "type": "uint256"
        }
      ],
      "name": "explicitOwnershipOf",
      "outputs": [
        {
          "components": [
            {
              "internalType": "address",
              "name": "addr",
              "type": "address"
            },
            {
              "internalType": "uint64",
              "name": "startTimestamp",
              "type": "uint64"
            },
            {
              "internalType": "bool",
              "name": "burned",
              "type": "bool"
            }
          ],
          "internalType": "struct IERC721A.TokenOwnership",
          "name": "",
          "type": "tuple"
        }
      ],
      "stateMutability": "view",
      "type": "function"
    },
    {
      "inputs": [
        {
          "internalType": "uint256[]",
          "name": "tokenIds",
          "type": "uint256[]"
        }
      ],
      "name": "explicitOwnershipsOf",
      "outputs": [
        {
          "components": [
            {
              "internalType": "address",
              "name": "addr",
              "type": "address"
            },
            {
              "internalType": "uint64",
              "name": "startTimestamp",
              "type": "uint64"
            },
            {
              "internalType": "bool",
              "name": "burned",
              "type": "bool"
            }
          ],
          "internalType": "struct IERC721A.TokenOwnership[]",
          "name": "",
          "type": "tuple[]"
        }
      ],
      "stateMutability": "view",
      "type": "function"
    },
    {
      "inputs": [
        {
          "internalType": "uint256",
          "name": "tokenId",
          "type": "uint256"
        }
      ],
      "name": "getApproved",
      "outputs": [
        {
          "internalType": "address",
          "name": "",
          "type": "address"
        }
      ],
      "stateMutability": "view",
      "type": "function"
    },
    {
      "inputs": [
        {
          "internalType": "address",
          "name": "owner",
          "type": "address"
        },
        {
          "internalType": "address",
          "name": "operator",
          "type": "address"
        }
      ],
      "name": "isApprovedForAll",
      "outputs": [
        {
          "internalType": "bool",
          "name": "",
          "type": "bool"
        }
      ],
      "stateMutability": "view",
      "type": "function"
    },
    {
      "inputs": [],
      "name": "name",
      "outputs": [
        {
          "internalType": "string",
          "name": "",
          "type": "string"
        }
      ],
      "stateMutability": "view",
      "type": "function"
    },
    {
      "inputs": [
        {
          "internalType": "uint256",
          "name": "tokenId",
          "type": "uint256"
        }
      ],
      "name": "ownerOf",
      "outputs": [
        {
          "internalType": "address",
          "name": "",
          "type": "address"
        }
      ],
      "stateMutability": "view",
      "type": "function"
    },
    {
      "inputs": [
        {
          "internalType": "address",
          "name": "to",
          "type": "address"
        },
        {
          "internalType": "uint256",
          "name": "quantity",
          "type": "uint256"
        }
      ],
      "name": "safeMint",
      "outputs": [],
      "stateMutability": "nonpayable",
      "type": "function"
    },
    {
      "inputs": [
        {
          "internalType": "address",
          "name": "from",
          "type": "address"
        },
        {
          "internalType": "address",
          "name": "to",
          "type": "address"
        },
        {
          "internalType": "uint256",
          "name": "tokenId",
          "type": "uint256"
        }
      ],
      "name": "safeTransferFrom",
      "outputs": [],
      "stateMutability": "nonpayable",
      "type": "function"
    },
    {
      "inputs": [
        {
          "internalType": "address",
          "name": "from",
          "type": "address"
        },
        {
          "internalType": "address",
          "name": "to",
          "type": "address"
        },
        {
          "internalType": "uint256",
          "name": "tokenId",
          "type": "uint256"
        },
        {
          "internalType": "bytes",
          "name": "_data",
          "type": "bytes"
        }
      ],
      "name": "safeTransferFrom",
      "outputs": [],
      "stateMutability": "nonpayable",
      "type": "function"
    },
    {
      "inputs": [
        {
          "internalType": "address",
          "name": "operator",
          "type": "address"
        },
        {
          "internalType": "bool",
          "name": "approved",
          "type": "bool"
        }
      ],
      "name": "setApprovalForAll",
      "outputs": [],
      "stateMutability": "nonpayable",
      "type": "function"
    },
    {
      "inputs": [],
      "name": "startTokenId",
      "outputs": [
        {
          "internalType": "uint256",
          "name": "",
          "type": "uint256"
        }
      ],
      "stateMutability": "view",
      "type": "function"
    },
    {
      "inputs": [
        {
          "internalType": "bytes4",
          "name": "interfaceId",
          "type": "bytes4"
        }
      ],
      "name": "supportsInterface",
      "outputs": [
        {
          "internalType": "bool",
          "name": "",
          "type": "bool"
        }
      ],
      "stateMutability": "view",
      "type": "function"
    },
    {
      "inputs": [],
      "name": "symbol",
      "outputs": [
        {
          "internalType": "string",
          "name": "",
          "type": "string"
        }
      ],
      "stateMutability": "view",
      "type": "function"
    },
    {
      "inputs": [
        {
          "internalType": "uint256",
          "name": "tokenId",
          "type": "uint256"
        }
      ],
      "name": "tokenURI",
      "outputs": [
        {
          "internalType": "string",
          "name": "",
          "type": "string"
        }
      ],
      "stateMutability": "view",
      "type": "function"
    },
    {
      "inputs": [
        {
          "internalType": "address",
          "name": "owner",
          "type": "address"
        }
      ],
      "name": "tokensOfOwner",
      "outputs": [
        {
          "internalType": "uint256[]",
          "name": "",
          "type": "uint256[]"
        }
      ],
      "stateMutability": "view",
      "type": "function"
    },
    {
      "inputs": [
        {
          "internalType": "address",
          "name": "owner",
          "type": "address"
        },
        {
          "internalType": "uint256",
          "name": "start",
          "type": "uint256"
        },
        {
          "internalType": "uint256",
          "name": "stop",
          "type": "uint256"
        }
      ],
      "name": "tokensOfOwnerIn",
      "outputs": [
        {
          "internalType": "uint256[]",
          "name": "",
          "type": "uint256[]"
        }
      ],
      "stateMutability": "view",
      "type": "function"
    },
    {
      "inputs": [],
      "name": "totalSupply",
      "outputs": [
        {
          "internalType": "uint256",
          "name": "",
          "type": "uint256"
        }
      ],
      "stateMutability": "view",
      "type": "function"
    },
    {
      "inputs": [
        {
          "internalType": "address",
          "name": "from",
          "type": "address"
        },
        {
          "internalType": "address",
          "name": "to",
          "type": "address"
        },
        {
          "internalType": "uint256",
          "name": "tokenId",
          "type": "uint256"
        }
      ],
      "name": "transferFrom",
      "outputs": [],
      "stateMutability": "nonpayable",
      "type": "function"
    }
  ],
  "bytecode": "0x60806040523480156200001157600080fd5b5060405162001b7c38038062001b7c8339810160408190526200003491620001f4565b6000819055825183908390829082906200005690600390602085019062000081565b5080516200006c90600490602084019062000081565b5060005460015550620002a495505050505050565b8280546200008f9062000267565b90600052602060002090601f016020900481019282620000b35760008555620000fe565b82601f10620000ce57805160ff1916838001178555620000fe565b82800160010185558215620000fe579182015b82811115620000fe578251825591602001919060010190620000e1565b506200010c92915062000110565b5090565b5b808211156200010c576000815560010162000111565b634e487b7160e01b600052604160045260246000fd5b600082601f8301126200014f57600080fd5b81516001600160401b03808211156200016c576200016c62000127565b604051601f8301601f19908116603f0116810190828211818310171562000197576200019762000127565b81604052838152602092508683858801011115620001b457600080fd5b600091505b83821015620001d85785820183015181830184015290820190620001b9565b83821115620001ea5760008385830101525b9695505050505050565b6000806000606084860312156200020a57600080fd5b83516001600160401b03808211156200022257600080fd5b62000230878388016200013d565b945060208601519150808211156200024757600080fd5b5062000256868287016200013d565b925050604084015190509250925092565b600181811c908216806200027c57607f821691505b602082108114156200029e57634e487b7160e01b600052602260045260246000fd5b50919050565b6118c880620002b46000396000f3fe608060405234801561001057600080fd5b50600436106101775760003560e01c806370a08231116100d8578063a22cb4651161008c578063c87b56dd11610066578063c87b56dd14610326578063e6798baa14610339578063e985e9c51461034257600080fd5b8063a22cb465146102e0578063b88d4fde146102f3578063c23dc68f1461030657600080fd5b806395d89b41116100bd57806395d89b41146102b257806399a2557a146102ba578063a1448194146102cd57600080fd5b806370a082311461027f5780638462151c1461029257600080fd5b806323b872dd1161012f57806342966c681161011457806342966c68146102395780635bbb21771461024c5780636352211e1461026c57600080fd5b806323b872dd1461021357806342842e0e1461022657600080fd5b8063081812fc11610160578063081812fc146101b9578063095ea7b3146101e457806318160ddd146101f957600080fd5b806301ffc9a71461017c57806306fdde03146101a4575b600080fd5b61018f61018a366004611310565b61037e565b60405190151581526020015b60405180910390f35b6101ac6103d0565b60405161019b9190611385565b6101cc6101c7366004611398565b610462565b6040516001600160a01b03909116815260200161019b565b6101f76101f23660046113cd565b6104a6565b005b60005460025460015403035b60405190815260200161019b565b6101f76102213660046113f7565b610570565b6101f76102343660046113f7565b610580565b6101f7610247366004611398565b61059b565b61025f61025a36600461147a565b6105a9565b60405161019b9190611520565b6101cc61027a366004611398565b610670565b61020561028d36600461158b565b61067b565b6102a56102a036600461158b565b6106c1565b60405161019b91906115a6565b6101ac6107c5565b6102a56102c83660046115de565b6107d4565b6101f76102db3660046113cd565b610968565b6101f76102ee366004611611565b610976565b6101f761030136600461164d565b610a0c565b610319610314366004611398565b610a56565b60405161019b919061170d565b6101ac610334366004611398565b610ad1565b61020560005481565b61018f610350366004611743565b6001600160a01b03918216600090815260086020908152604080832093909416825291909152205460ff1690565b60006301ffc9a760e01b6001600160e01b0319831614806103af57506380ac58cd60e01b6001600160e01b03198316145b806103ca5750635b5e139f60e01b6001600160e01b03198316145b92915050565b6060600380546103df90611776565b80601f016020809104026020016040519081016040528092919081815260200182805461040b90611776565b80156104585780601f1061042d57610100808354040283529160200191610458565b820191906000526020600020905b81548152906001019060200180831161043b57829003601f168201915b5050505050905090565b600061046d82610b55565b61048a576040516333d1c03960e21b815260040160405180910390fd5b506000908152600760205260409020546001600160a01b031690565b60006104b182610b91565b9050336001600160a01b03821614610507576001600160a01b038116600090815260086020908152604080832033845290915290205460ff16610507576040516367d9dca160e11b815260040160405180910390fd5b600082815260076020526040808220805473ffffffffffffffffffffffffffffffffffffffff19166001600160a01b0387811691821790925591518593918516917f8c5be1e5ebec7d5bd14f71427d1e84f3dd0314c0f7b2291e5b200ac8c7c3b92591a4505050565b61057b838383610c01565b505050565b61057b83838360405180602001604052806000815250610a0c565b6105a6816001610ddc565b50565b805160609060008167ffffffffffffffff8111156105c9576105c9611433565b60405190808252806020026020018201604052801561061457816020015b60408051606081018252600080825260208083018290529282015282526000199092019101816105e75790505b50905060005b82811461066857610643858281518110610636576106366117b1565b6020026020010151610a56565b828281518110610655576106556117b1565b602090810291909101015260010161061a565b509392505050565b60006103ca82610b91565b60008161069b576040516323d3ad8160e21b815260040160405180910390fd5b506001600160a01b031660009081526006602052604090205467ffffffffffffffff1690565b606060008060006106d18561067b565b905060008167ffffffffffffffff8111156106ee576106ee611433565b604051908082528060200260200182016040528015610717578160200160208202803683370190505b50604080516060810182526000808252602082018190529181018290529054919250905b8386146107b95761074b81610f7b565b915081604001511561075c576107b1565b81516001600160a01b03161561077157815194505b876001600160a01b0316856001600160a01b031614156107b157808387806001019850815181106107a4576107a46117b1565b6020026020010181815250505b60010161073b565b50909695505050505050565b6060600480546103df90611776565b60608183106107f657604051631960ccad60e11b815260040160405180910390fd5b60008061080260015490565b905061080d60005490565b85101561081a5760005494505b80841115610826578093505b60006108318761067b565b905084861015610850578585038181101561084a578091505b50610854565b5060005b60008167ffffffffffffffff81111561086f5761086f611433565b604051908082528060200260200182016040528015610898578160200160208202803683370190505b509050816108ab57935061096192505050565b60006108b688610a56565b9050600081604001516108c7575080515b885b8881141580156108d95750848714155b15610955576108e781610f7b565b92508260400151156108f85761094d565b82516001600160a01b03161561090d57825191505b8a6001600160a01b0316826001600160a01b0316141561094d5780848880600101995081518110610940576109406117b1565b6020026020010181815250505b6001016108c9565b50505092835250909150505b9392505050565b6109728282610fe6565b5050565b6001600160a01b0382163314156109a05760405163b06307db60e01b815260040160405180910390fd5b3360008181526008602090815260408083206001600160a01b03871680855290835292819020805460ff191686151590811790915590519081529192917f17307eab39ab6107e8899845ad3d59bd9653f200f220920489ca2b5937696c31910160405180910390a35050565b610a17848484610c01565b6001600160a01b0383163b15610a5057610a3384848484611000565b610a50576040516368d2bf6b60e11b815260040160405180910390fd5b50505050565b60408051606081018252600080825260208201819052918101919091526040805160608101825260008082526020820181905291810191909152600054831080610aa257506001548310155b15610aad5792915050565b610ab683610f7b565b9050806040015115610ac85792915050565b610961836110e8565b6060610adc82610b55565b610af957604051630a14c4b560e41b815260040160405180910390fd5b6000610b0361114c565b9050805160001415610b245760405180602001604052806000815250610961565b80610b2e8461116c565b604051602001610b3f9291906117c7565b6040516020818303038152906040529392505050565b600081610b6160005490565b11158015610b70575060015482105b80156103ca575050600090815260056020526040902054600160e01b161590565b60008180610b9e60005490565b11610be857600154811015610be857600081815260056020526040902054600160e01b8116610be6575b80610961575060001901600081815260056020526040902054610bc8565b505b604051636f96cda160e11b815260040160405180910390fd5b6000610c0c82610b91565b9050836001600160a01b0316816001600160a01b031614610c3f5760405162a1148160e81b815260040160405180910390fd5b6000828152600760205260408120546001600160a01b0390811691908616331480610c8d57506001600160a01b038616600090815260086020908152604080832033845290915290205460ff165b80610ca057506001600160a01b03821633145b905080610cc057604051632ce44b5f60e11b815260040160405180910390fd5b84610cde57604051633a954ecd60e21b815260040160405180910390fd5b8115610d0e576000848152600760205260409020805473ffffffffffffffffffffffffffffffffffffffff191690555b6001600160a01b03868116600090815260066020908152604080832080546000190190559288168252828220805460010190558682526005905220600160e11b4260a01b871781179091558316610d935760018401600081815260056020526040902054610d91576001548114610d915760008181526005602052604090208490555b505b83856001600160a01b0316876001600160a01b03167fddf252ad1be2c89b69c2b068fc378daa952ba7f163c4a11628f55a4df523b3ef60405160405180910390a4505050505050565b6000610de783610b91565b60008481526007602052604090205490915081906001600160a01b03168315610e7b576000336001600160a01b0384161480610e4657506001600160a01b038316600090815260086020908152604080832033845290915290205460ff165b80610e5957506001600160a01b03821633145b905080610e7957604051632ce44b5f60e11b815260040160405180910390fd5b505b8015610eab576000858152600760205260409020805473ffffffffffffffffffffffffffffffffffffffff191690555b6001600160a01b038216600090815260066020908152604080832080546fffffffffffffffffffffffffffffffff01905587835260059091529020600360e01b4260a01b8417179055600160e11b8316610f335760018501600081815260056020526040902054610f31576001548114610f315760008181526005602052604090208490555b505b60405185906000906001600160a01b038516907fddf252ad1be2c89b69c2b068fc378daa952ba7f163c4a11628f55a4df523b3ef908390a45050600280546001019055505050565b60408051606081018252600080825260208201819052918101919091526000828152600560205260409020546103ca90604080516060810182526001600160a01b038316815260a083901c67ffffffffffffffff166020820152600160e01b90921615159082015290565b6109728282604051806020016040528060008152506111bb565b604051630a85bd0160e11b81526000906001600160a01b0385169063150b7a02906110359033908990889088906004016117f6565b6020604051808303816000875af1925050508015611070575060408051601f3d908101601f1916820190925261106d91810190611832565b60015b6110cb573d80801561109e576040519150601f19603f3d011682016040523d82523d6000602084013e6110a3565b606091505b5080516110c3576040516368d2bf6b60e11b815260040160405180910390fd5b805181602001fd5b6001600160e01b031916630a85bd0160e11b149050949350505050565b60408051606081018252600080825260208201819052918101919091526103ca61111183610b91565b604080516060810182526001600160a01b038316815260a083901c67ffffffffffffffff166020820152600160e01b90921615159082015290565b606060405180608001604052806043815260200161185060439139905090565b604080516080810191829052607f0190826030600a8206018353600a90045b80156111a957600183039250600a81066030018353600a900461118b565b50819003601f19909101908152919050565b6111c58383611228565b6001600160a01b0383163b1561057b576001548281035b6111ef6000868380600101945086611000565b61120c576040516368d2bf6b60e11b815260040160405180910390fd5b8181106111dc57816001541461122157600080fd5b5050505050565b6001548261124857604051622e076360e81b815260040160405180910390fd5b816112665760405163b562e8dd60e01b815260040160405180910390fd5b6001600160a01b03831660009081526006602090815260408083208054680100000000000000018702019055838352600590915281204260a01b85176001851460e11b1790555b60405160018201918301906001600160a01b038616906000907fddf252ad1be2c89b69c2b068fc378daa952ba7f163c4a11628f55a4df523b3ef908290a48281106112ad57500160015550565b6001600160e01b0319811681146105a657600080fd5b60006020828403121561132257600080fd5b8135610961816112fa565b60005b83811015611348578181015183820152602001611330565b83811115610a505750506000910152565b6000815180845261137181602086016020860161132d565b601f01601f19169290920160200192915050565b6020815260006109616020830184611359565b6000602082840312156113aa57600080fd5b5035919050565b80356001600160a01b03811681146113c857600080fd5b919050565b600080604083850312156113e057600080fd5b6113e9836113b1565b946020939093013593505050565b60008060006060848603121561140c57600080fd5b611415846113b1565b9250611423602085016113b1565b9150604084013590509250925092565b634e487b7160e01b600052604160045260246000fd5b604051601f8201601f1916810167ffffffffffffffff8111828210171561147257611472611433565b604052919050565b6000602080838503121561148d57600080fd5b823567ffffffffffffffff808211156114a557600080fd5b818501915085601f8301126114b957600080fd5b8135818111156114cb576114cb611433565b8060051b91506114dc848301611449565b81815291830184019184810190888411156114f657600080fd5b938501935b83851015611514578435825293850193908501906114fb565b98975050505050505050565b6020808252825182820181905260009190848201906040850190845b818110156107b95761157883855180516001600160a01b0316825260208082015167ffffffffffffffff16908301526040908101511515910152565b928401926060929092019160010161153c565b60006020828403121561159d57600080fd5b610961826113b1565b6020808252825182820181905260009190848201906040850190845b818110156107b9578351835292840192918401916001016115c2565b6000806000606084860312156115f357600080fd5b6115fc846113b1565b95602085013595506040909401359392505050565b6000806040838503121561162457600080fd5b61162d836113b1565b91506020830135801515811461164257600080fd5b809150509250929050565b6000806000806080858703121561166357600080fd5b61166c856113b1565b9350602061167b8187016113b1565b935060408601359250606086013567ffffffffffffffff8082111561169f57600080fd5b818801915088601f8301126116b357600080fd5b8135818111156116c5576116c5611433565b6116d7601f8201601f19168501611449565b915080825289848285010111156116ed57600080fd5b808484018584013760008482840101525080935050505092959194509250565b81516001600160a01b0316815260208083015167ffffffffffffffff1690820152604080830151151590820152606081016103ca565b6000806040838503121561175657600080fd5b61175f836113b1565b915061176d602084016113b1565b90509250929050565b600181811c9082168061178a57607f821691505b602082108114156117ab57634e487b7160e01b600052602260045260246000fd5b50919050565b634e487b7160e01b600052603260045260246000fd5b600083516117d981846020880161132d565b8351908301906117ed81836020880161132d565b01949350505050565b60006001600160a01b038087168352808616602084015250836040830152608060608301526118286080830184611359565b9695505050505050565b60006020828403121561184457600080fd5b8151610961816112fa56fe697066733a2f2f6261667962656965696134716b327063326b6f6f643664327a6876616733753472686d7a6d73667862736c6e796e6a6761656671677468687676712fa26469706673582212204645f1c6c7e46f0c1917887e23dad0f2ccb68a33fef28b42865c80d28180f28064736f6c634300080b0033",
  "linkReferences": {},
  "deployedLinkReferences": {}
}