{
  "_format": "hh-sol-artifact-1",
  "contractName": "ERC721AGasReporterMock",
  "sourceName": "contracts/mocks/ERC721AGasReporterMock.sol",
  "abi": [
    {
      "inputs": [
        {
          "internalType": "string",
          "name": "name_",
          "type": "string"
        },
        {
          "internalType": "string",
          "name": "symbol_",
          "type": "string"
        }
      ],
      "stateMutability": "nonpayable",
      "type": "constructor"
    },
    {
      "inputs": [],
      "name": "ApprovalCallerNotOwnerNorApproved",
      "type": "error"
    },
    {
      "inputs": [],
      "name": "ApprovalQueryForNonexistentToken",
      "type": "error"
    },
    {
      "inputs": [],
      "name": "ApproveToCaller",
      "type": "error"
    },
    {
      "inputs": [],
      "name": "BalanceQueryForZeroAddress",
      "type": "error"
    },
    {
      "inputs": [],
      "name": "MintToZeroAddress",
      "type": "error"
    },
    {
      "inputs": [],
      "name": "MintZeroQuantity",
      "type": "error"
    },
    {
      "inputs": [],
      "name": "OwnerQueryForNonexistentToken",
      "type": "error"
    },
    {
      "inputs": [],
      "name": "TransferCallerNotOwnerNorApproved",
      "type": "error"
    },
    {
      "inputs": [],
      "name": "TransferFromIncorrectOwner",
      "type": "error"
    },
    {
      "inputs": [],
      "name": "TransferToNonERC721ReceiverImplementer",
      "type": "error"
    },
    {
      "inputs": [],
      "name": "TransferToZeroAddress",
      "type": "error"
    },
    {
      "inputs": [],
      "name": "URIQueryForNonexistentToken",
      "type": "error"
    },
    {
      "anonymous": false,
      "inputs": [
        {
          "indexed": true,
          "internalType": "address",
          "name": "owner",
          "type": "address"
        },
        {
          "indexed": true,
          "internalType": "address",
          "name": "approved",
          "type": "address"
        },
        {
          "indexed": true,
          "internalType": "uint256",
          "name": "tokenId",
          "type": "uint256"
        }
      ],
      "name": "Approval",
      "type": "event"
    },
    {
      "anonymous": false,
      "inputs": [
        {
          "indexed": true,
          "internalType": "address",
          "name": "owner",
          "type": "address"
        },
        {
          "indexed": true,
          "internalType": "address",
          "name": "operator",
          "type": "address"
        },
        {
          "indexed": false,
          "internalType": "bool",
          "name": "approved",
          "type": "bool"
        }
      ],
      "name": "ApprovalForAll",
      "type": "event"
    },
    {
      "anonymous": false,
      "inputs": [
        {
          "indexed": true,
          "internalType": "address",
          "name": "from",
          "type": "address"
        },
        {
          "indexed": true,
          "internalType": "address",
          "name": "to",
          "type": "address"
        },
        {
          "indexed": true,
          "internalType": "uint256",
          "name": "tokenId",
          "type": "uint256"
        }
      ],
      "name": "Transfer",
      "type": "event"
    },
    {
      "inputs": [
        {
          "internalType": "address",
          "name": "to",
          "type": "address"
        },
        {
          "internalType": "uint256",
          "name": "tokenId",
          "type": "uint256"
        }
      ],
      "name": "approve",
      "outputs": [],
      "stateMutability": "nonpayable",
      "type": "function"
    },
    {
      "inputs": [
        {
          "internalType": "address",
          "name": "owner",
          "type": "address"
        }
      ],
      "name": "balanceOf",
      "outputs": [
        {
          "internalType": "uint256",
          "name": "",
          "type": "uint256"
        }
      ],
      "stateMutability": "view",
      "type": "function"
    },
    {
      "inputs": [
        {
          "internalType": "uint256",
          "name": "tokenId",
          "type": "uint256"
        }
      ],
      "name": "getApproved",
      "outputs": [
        {
          "internalType": "address",
          "name": "",
          "type": "address"
        }
      ],
      "stateMutability": "view",
      "type": "function"
    },
    {
      "inputs": [
        {
          "internalType": "address",
          "name": "owner",
          "type": "address"
        },
        {
          "internalType": "address",
          "name": "operator",
          "type": "address"
        }
      ],
      "name": "isApprovedForAll",
      "outputs": [
        {
          "internalType": "bool",
          "name": "",
          "type": "bool"
        }
      ],
      "stateMutability": "view",
      "type": "function"
    },
    {
      "inputs": [
        {
          "internalType": "address",
          "name": "to",
          "type": "address"
        }
      ],
      "name": "mintOne",
      "outputs": [],
      "stateMutability": "nonpayable",
      "type": "function"
    },
    {
      "inputs": [
        {
          "internalType": "address",
          "name": "to",
          "type": "address"
        }
      ],
      "name": "mintTen",
      "outputs": [],
      "stateMutability": "nonpayable",
      "type": "function"
    },
    {
      "inputs": [],
      "name": "name",
      "outputs": [
        {
          "internalType": "string",
          "name": "",
          "type": "string"
        }
      ],
      "stateMutability": "view",
      "type": "function"
    },
    {
      "inputs": [
        {
          "internalType": "uint256",
          "name": "tokenId",
          "type": "uint256"
        }
      ],
      "name": "ownerOf",
      "outputs": [
        {
          "internalType": "address",
          "name": "",
          "type": "address"
        }
      ],
      "stateMutability": "view",
      "type": "function"
    },
    {
      "inputs": [
        {
          "internalType": "address",
          "name": "to",
          "type": "address"
        }
      ],
      "name": "safeMintOne",
      "outputs": [],
      "stateMutability": "nonpayable",
      "type": "function"
    },
    {
      "inputs": [
        {
          "internalType": "address",
          "name": "to",
          "type": "address"
        }
      ],
      "name": "safeMintTen",
      "outputs": [],
      "stateMutability": "nonpayable",
      "type": "function"
    },
    {
      "inputs": [
        {
          "internalType": "address",
          "name": "from",
          "type": "address"
        },
        {
          "internalType": "address",
          "name": "to",
          "type": "address"
        },
        {
          "internalType": "uint256",
          "name": "tokenId",
          "type": "uint256"
        }
      ],
      "name": "safeTransferFrom",
      "outputs": [],
      "stateMutability": "nonpayable",
      "type": "function"
    },
    {
      "inputs": [
        {
          "internalType": "address",
          "name": "from",
          "type": "address"
        },
        {
          "internalType": "address",
          "name": "to",
          "type": "address"
        },
        {
          "internalType": "uint256",
          "name": "tokenId",
          "type": "uint256"
        },
        {
          "internalType": "bytes",
          "name": "_data",
          "type": "bytes"
        }
      ],
      "name": "safeTransferFrom",
      "outputs": [],
      "stateMutability": "nonpayable",
      "type": "function"
    },
    {
      "inputs": [
        {
          "internalType": "address",
          "name": "operator",
          "type": "address"
        },
        {
          "internalType": "bool",
          "name": "approved",
          "type": "bool"
        }
      ],
      "name": "setApprovalForAll",
      "outputs": [],
      "stateMutability": "nonpayable",
      "type": "function"
    },
    {
      "inputs": [
        {
          "internalType": "bytes4",
          "name": "interfaceId",
          "type": "bytes4"
        }
      ],
      "name": "supportsInterface",
      "outputs": [
        {
          "internalType": "bool",
          "name": "",
          "type": "bool"
        }
      ],
      "stateMutability": "view",
      "type": "function"
    },
    {
      "inputs": [],
      "name": "symbol",
      "outputs": [
        {
          "internalType": "string",
          "name": "",
          "type": "string"
        }
      ],
      "stateMutability": "view",
      "type": "function"
    },
    {
      "inputs": [
        {
          "internalType": "uint256",
          "name": "tokenId",
          "type": "uint256"
        }
      ],
      "name": "tokenURI",
      "outputs": [
        {
          "internalType": "string",
          "name": "",
          "type": "string"
        }
      ],
      "stateMutability": "view",
      "type": "function"
    },
    {
      "inputs": [],
      "name": "totalSupply",
      "outputs": [
        {
          "internalType": "uint256",
          "name": "",
          "type": "uint256"
        }
      ],
      "stateMutability": "view",
      "type": "function"
    },
    {
      "inputs": [
        {
          "internalType": "address",
          "name": "from",
          "type": "address"
        },
        {
          "internalType": "address",
          "name": "to",
          "type": "address"
        },
        {
          "internalType": "uint256",
          "name": "tokenId",
          "type": "uint256"
        }
      ],
      "name": "transferFrom",
      "outputs": [],
      "stateMutability": "nonpayable",
      "type": "function"
    },
    {
      "inputs": [
        {
          "internalType": "address",
          "name": "to",
          "type": "address"
        }
      ],
      "name": "transferTenAsc",
      "outputs": [],
      "stateMutability": "nonpayable",
      "type": "function"
    },
    {
      "inputs": [
        {
          "internalType": "address",
          "name": "to",
          "type": "address"
        }
      ],
      "name": "transferTenAvg",
      "outputs": [],
      "stateMutability": "nonpayable",
      "type": "function"
    },
    {
      "inputs": [
        {
          "internalType": "address",
          "name": "to",
          "type": "address"
        }
      ],
      "name": "transferTenDesc",
      "outputs": [],
      "stateMutability": "nonpayable",
      "type": "function"
    }
  ],
  "bytecode": "0x60806040523480156200001157600080fd5b5060405162001434380380620014348339810160408190526200003491620001e6565b8151829082906200004d90600290602085019062000073565b5080516200006390600390602084019062000073565b5060008055506200028d92505050565b828054620000819062000250565b90600052602060002090601f016020900481019282620000a55760008555620000f0565b82601f10620000c057805160ff1916838001178555620000f0565b82800160010185558215620000f0579182015b82811115620000f0578251825591602001919060010190620000d3565b50620000fe92915062000102565b5090565b5b80821115620000fe576000815560010162000103565b634e487b7160e01b600052604160045260246000fd5b600082601f8301126200014157600080fd5b81516001600160401b03808211156200015e576200015e62000119565b604051601f8301601f19908116603f0116810190828211818310171562000189576200018962000119565b81604052838152602092508683858801011115620001a657600080fd5b600091505b83821015620001ca5785820183015181830184015290820190620001ab565b83821115620001dc5760008385830101525b9695505050505050565b60008060408385031215620001fa57600080fd5b82516001600160401b03808211156200021257600080fd5b62000220868387016200012f565b935060208501519150808211156200023757600080fd5b5062000246858286016200012f565b9150509250929050565b600181811c908216806200026557607f821691505b602082108114156200028757634e487b7160e01b600052602260045260246000fd5b50919050565b611197806200029d6000396000f3fe608060405234801561001057600080fd5b50600436106101775760003560e01c806370a08231116100d8578063bcd9bbbc1161008c578063e985e9c511610066578063e985e9c5146102fb578063ef9c0bec14610337578063fa695a971461034a57600080fd5b8063bcd9bbbc146102c2578063c87b56dd146102d5578063db6745f8146102e857600080fd5b806395d89b41116100bd57806395d89b4114610294578063a22cb4651461029c578063b88d4fde146102af57600080fd5b806370a082311461026e57806381861f841461028157600080fd5b806318160ddd1161012f57806342842e0e1161011457806342842e0e146102355780634da42e58146102485780636352211e1461025b57600080fd5b806318160ddd1461020c57806323b872dd1461022257600080fd5b8063081812fc11610160578063081812fc146101b9578063095ea7b3146101e45780630ff4ba63146101f957600080fd5b806301ffc9a71461017c57806306fdde03146101a4575b600080fd5b61018f61018a366004610dbc565b61035d565b60405190151581526020015b60405180910390f35b6101ac6103af565b60405161019b9190610e31565b6101cc6101c7366004610e44565b610441565b6040516001600160a01b03909116815260200161019b565b6101f76101f2366004610e79565b610485565b005b6101f7610207366004610ea3565b610532565b600154600054035b60405190815260200161019b565b6101f7610230366004610ebe565b6105ad565b6101f7610243366004610ebe565b6105bd565b6101f7610256366004610ea3565b6105d8565b6101cc610269366004610e44565b610650565b61021461027c366004610ea3565b61065b565b6101f761028f366004610ea3565b6106a1565b6101ac6106ac565b6101f76102aa366004610efa565b6106bb565b6101f76102bd366004610f4c565b610751565b6101f76102d0366004610ea3565b61079b565b6101ac6102e3366004610e44565b610807565b6101f76102f6366004610ea3565b61088c565b61018f610309366004611028565b6001600160a01b03918216600090815260076020908152604080832093909416825291909152205460ff1690565b6101f7610345366004610ea3565b610897565b6101f7610358366004610ea3565b6108a2565b60006301ffc9a760e01b6001600160e01b03198316148061038e57506380ac58cd60e01b6001600160e01b03198316145b806103a95750635b5e139f60e01b6001600160e01b03198316145b92915050565b6060600280546103be9061105b565b80601f01602080910402602001604051908101604052809291908181526020018280546103ea9061105b565b80156104375780601f1061040c57610100808354040283529160200191610437565b820191906000526020600020905b81548152906001019060200180831161041a57829003601f168201915b5050505050905090565b600061044c826108ad565b610469576040516333d1c03960e21b815260040160405180910390fd5b506000908152600660205260409020546001600160a01b031690565b6000610490826108d4565b9050336001600160a01b038216146104c9576104ac8133610309565b6104c9576040516367d9dca160e11b815260040160405180910390fd5b600082815260066020526040808220805473ffffffffffffffffffffffffffffffffffffffff19166001600160a01b0387811691821790925591518593918516917f8c5be1e5ebec7d5bd14f71427d1e84f3dd0314c0f7b2291e5b200ac8c7c3b92591a4505050565b61053e338260006105ad565b61054a338260016105ad565b610556338260026105ad565b610562338260036105ad565b61056e338260046105ad565b61057a338260056105ad565b610586338260066105ad565b610592338260076105ad565b61059e338260086105ad565b6105aa338260096105ad565b50565b6105b8838383610935565b505050565b6105b883838360405180602001604052806000815250610751565b6105e4338260096105ad565b6105f0338260086105ad565b6105fc338260076105ad565b610608338260066105ad565b610614338260056105ad565b610620338260046105ad565b61062c338260036105ad565b610638338260026105ad565b610644338260016105ad565b6105aa338260006105ad565b60006103a9826108d4565b60008161067b576040516323d3ad8160e21b815260040160405180910390fd5b506001600160a01b031660009081526005602052604090205467ffffffffffffffff1690565b6105aa81600a610af2565b6060600380546103be9061105b565b6001600160a01b0382163314156106e55760405163b06307db60e01b815260040160405180910390fd5b3360008181526007602090815260408083206001600160a01b03871680855290835292819020805460ff191686151590811790915590519081529192917f17307eab39ab6107e8899845ad3d59bd9653f200f220920489ca2b5937696c31910160405180910390a35050565b61075c848484610935565b6001600160a01b0383163b156107955761077884848484610b10565b610795576040516368d2bf6b60e11b815260040160405180910390fd5b50505050565b6107a7338260046105ad565b6107b3338260056105ad565b6107bf338260036105ad565b6107cb338260066105ad565b6107d7338260026105ad565b6107e3338260076105ad565b6107ef338260016105ad565b6107fb338260086105ad565b61059e338260006105ad565b6060610812826108ad565b61082f57604051630a14c4b560e41b815260040160405180910390fd5b6000610839610bf8565b905080516000141561085a5760405180602001604052806000815250610885565b8061086484610c18565b604051602001610875929190611096565b6040516020818303038152906040525b9392505050565b6105aa816001610af2565b6105aa81600a610c67565b6105aa816001610c67565b60008054821080156103a9575050600090815260046020526040902054600160e01b161590565b60008160005481101561091c57600081815260046020526040902054600160e01b811661091a575b806108855750600019016000818152600460205260409020546108fc565b505b604051636f96cda160e11b815260040160405180910390fd5b6000610940826108d4565b9050836001600160a01b0316816001600160a01b0316146109735760405162a1148160e81b815260040160405180910390fd5b6000828152600660205260408120546001600160a01b03908116919086163314806109a357506109a38633610309565b806109b657506001600160a01b03821633145b9050806109d657604051632ce44b5f60e11b815260040160405180910390fd5b846109f457604051633a954ecd60e21b815260040160405180910390fd5b8115610a24576000848152600660205260409020805473ffffffffffffffffffffffffffffffffffffffff191690555b6001600160a01b03868116600090815260056020908152604080832080546000190190559288168252828220805460010190558682526004905220600160e11b4260a01b871781179091558316610aa95760018401600081815260046020526040902054610aa7576000548114610aa75760008181526004602052604090208490555b505b83856001600160a01b0316876001600160a01b03167fddf252ad1be2c89b69c2b068fc378daa952ba7f163c4a11628f55a4df523b3ef60405160405180910390a4505050505050565b610b0c828260405180602001604052806000815250610d39565b5050565b604051630a85bd0160e11b81526000906001600160a01b0385169063150b7a0290610b459033908990889088906004016110c5565b6020604051808303816000875af1925050508015610b80575060408051601f3d908101601f19168201909252610b7d91810190611101565b60015b610bdb573d808015610bae576040519150601f19603f3d011682016040523d82523d6000602084013e610bb3565b606091505b508051610bd3576040516368d2bf6b60e11b815260040160405180910390fd5b805181602001fd5b6001600160e01b031916630a85bd0160e11b149050949350505050565b606060405180608001604052806043815260200161111f60439139905090565b604080516080810191829052607f0190826030600a8206018353600a90045b8015610c5557600183039250600a81066030018353600a9004610c37565b50819003601f19909101908152919050565b60005482610c8757604051622e076360e81b815260040160405180910390fd5b81610ca55760405163b562e8dd60e01b815260040160405180910390fd5b6001600160a01b03831660009081526005602090815260408083208054680100000000000000018702019055838352600490915281204260a01b85176001851460e11b1790555b60405160018201918301906001600160a01b038616906000907fddf252ad1be2c89b69c2b068fc378daa952ba7f163c4a11628f55a4df523b3ef908290a4828110610cec57500160005550565b610d438383610c67565b6001600160a01b0383163b156105b8576000548281035b610d6d6000868380600101945086610b10565b610d8a576040516368d2bf6b60e11b815260040160405180910390fd5b818110610d5a578160005414610d9f57600080fd5b5050505050565b6001600160e01b0319811681146105aa57600080fd5b600060208284031215610dce57600080fd5b813561088581610da6565b60005b83811015610df4578181015183820152602001610ddc565b838111156107955750506000910152565b60008151808452610e1d816020860160208601610dd9565b601f01601f19169290920160200192915050565b6020815260006108856020830184610e05565b600060208284031215610e5657600080fd5b5035919050565b80356001600160a01b0381168114610e7457600080fd5b919050565b60008060408385031215610e8c57600080fd5b610e9583610e5d565b946020939093013593505050565b600060208284031215610eb557600080fd5b61088582610e5d565b600080600060608486031215610ed357600080fd5b610edc84610e5d565b9250610eea60208501610e5d565b9150604084013590509250925092565b60008060408385031215610f0d57600080fd5b610f1683610e5d565b915060208301358015158114610f2b57600080fd5b809150509250929050565b634e487b7160e01b600052604160045260246000fd5b60008060008060808587031215610f6257600080fd5b610f6b85610e5d565b9350610f7960208601610e5d565b925060408501359150606085013567ffffffffffffffff80821115610f9d57600080fd5b818701915087601f830112610fb157600080fd5b813581811115610fc357610fc3610f36565b604051601f8201601f19908116603f01168101908382118183101715610feb57610feb610f36565b816040528281528a602084870101111561100457600080fd5b82602086016020830137600060208483010152809550505050505092959194509250565b6000806040838503121561103b57600080fd5b61104483610e5d565b915061105260208401610e5d565b90509250929050565b600181811c9082168061106f57607f821691505b6020821081141561109057634e487b7160e01b600052602260045260246000fd5b50919050565b600083516110a8818460208801610dd9565b8351908301906110bc818360208801610dd9565b01949350505050565b60006001600160a01b038087168352808616602084015250836040830152608060608301526110f76080830184610e05565b9695505050505050565b60006020828403121561111357600080fd5b815161088581610da656fe697066733a2f2f6261667962656965696134716b327063326b6f6f643664327a6876616733753472686d7a6d73667862736c6e796e6a6761656671677468687676712fa26469706673582212209a8c6b879d864d504b5700d22312119480a79eb5827839ab20e2339cf98e710664736f6c634300080b0033",
  "linkReferences": {},
  "deployedLinkReferences": {}
}