{
  "_format": "hh-sol-artifact-1",
  "contractName": "ConstructorParams",
  "sourceName": "contracts/mocks/ConstructorParams.sol",
  "abi": [
    {
      "inputs": [
        {
          "internalType": "bytes32",
          "name": "uri",
          "type": "bytes32"
        },
        {
          "internalType": "uint256",
          "name": "someId",
          "type": "uint256"
        }
      ],
      "stateMutability": "nonpayable",
      "type": "constructor"
    },
    {
      "anonymous": false,
      "inputs": [
        {
          "indexed": false,
          "internalType": "address",
          "name": "prevOwner",
          "type": "address"
        },
        {
          "indexed": false,
          "internalType": "address",
          "name": "newOwner",
          "type": "address"
        }
      ],
      "name": "OwnerUpdated",
      "type": "event"
    },
    {
      "inputs": [],
      "name": "contractUri",
      "outputs": [
        {
          "internalType": "bytes32",
          "name": "",
          "type": "bytes32"
        }
      ],
      "stateMutability": "view",
      "type": "function"
    },
    {
      "inputs": [],
      "name": "owner",
      "outputs": [
        {
          "internalType": "address",
          "name": "",
          "type": "address"
        }
      ],
      "stateMutability": "view",
      "type": "function"
    },
    {
      "inputs": [
        {
          "internalType": "address",
          "name": "_newOwner",
          "type": "address"
        }
      ],
      "name": "setOwner",
      "outputs": [],
      "stateMutability": "nonpayable",
      "type": "function"
    },
    {
      "inputs": [
        {
          "internalType": "address",
          "name": "deployer",
          "type": "address"
        }
      ],
      "name": "tw_initializeOwner",
      "outputs": [],
      "stateMutability": "nonpayable",
      "type": "function"
    }
  ],
  "bytecode": "0x60a060405234801561001057600080fd5b5060405161031b38038061031b83398101604081905261002f9161003d565b608091909152600255610061565b6000806040838503121561005057600080fd5b505080516020909101519092909150565b6080516102a061007b600039600060ae01526102a06000f3fe608060405234801561001057600080fd5b506004361061004c5760003560e01c806310ce19a41461005157806313af4035146100665780638da5cb5b14610079578063c0e24d5e146100a9575b600080fd5b61006461005f36600461023a565b6100de565b005b61006461007436600461023a565b610166565b60005461008c906001600160a01b031681565b6040516001600160a01b0390911681526020015b60405180910390f35b6100d07f000000000000000000000000000000000000000000000000000000000000000081565b6040519081526020016100a0565b600154156101335760405162461bcd60e51b815260206004820152601960248201527f4f776e657220616c726561647920696e697469616c697a65640000000000000060448201526064015b60405180910390fd5b600180556000805473ffffffffffffffffffffffffffffffffffffffff19166001600160a01b0392909216919091179055565b6000546001600160a01b031633146101c05760405162461bcd60e51b815260206004820152600e60248201527f4e6f7420617574686f72697a6564000000000000000000000000000000000000604482015260640161012a565b6101c9816101cc565b50565b600080546001600160a01b0383811673ffffffffffffffffffffffffffffffffffffffff1983168117909355604080519190921680825260208201939093527f8292fce18fa69edf4db7b94ea2e58241df0ae57f97e0a6c9b29067028bf92d76910160405180910390a15050565b60006020828403121561024c57600080fd5b81356001600160a01b038116811461026357600080fd5b939250505056fea26469706673582212208da42943df066d011274179073ae32821b0a91dfe7b937dc5c887e5115a4899164736f6c634300080b0033",
  "linkReferences": {},
  "deployedLinkReferences": {}
}