{
  "_format": "hh-sol-artifact-1",
  "contractName": "ERC721AStartTokenIdMock",
  "sourceName": "contracts/mocks/ERC721AStartTokenIdMock.sol",
  "abi": [
    {
      "inputs": [
        {
          "internalType": "string",
          "name": "name_",
          "type": "string"
        },
        {
          "internalType": "string",
          "name": "symbol_",
          "type": "string"
        },
        {
          "internalType": "uint256",
          "name": "startTokenId_",
          "type": "uint256"
        }
      ],
      "stateMutability": "nonpayable",
      "type": "constructor"
    },
    {
      "inputs": [],
      "name": "ApprovalCallerNotOwnerNorApproved",
      "type": "error"
    },
    {
      "inputs": [],
      "name": "ApprovalQueryForNonexistentToken",
      "type": "error"
    },
    {
      "inputs": [],
      "name": "ApproveToCaller",
      "type": "error"
    },
    {
      "inputs": [],
      "name": "BalanceQueryForZeroAddress",
      "type": "error"
    },
    {
      "inputs": [],
      "name": "MintToZeroAddress",
      "type": "error"
    },
    {
      "inputs": [],
      "name": "MintZeroQuantity",
      "type": "error"
    },
    {
      "inputs": [],
      "name": "OwnerQueryForNonexistentToken",
      "type": "error"
    },
    {
      "inputs": [],
      "name": "TransferCallerNotOwnerNorApproved",
      "type": "error"
    },
    {
      "inputs": [],
      "name": "TransferFromIncorrectOwner",
      "type": "error"
    },
    {
      "inputs": [],
      "name": "TransferToNonERC721ReceiverImplementer",
      "type": "error"
    },
    {
      "inputs": [],
      "name": "TransferToZeroAddress",
      "type": "error"
    },
    {
      "inputs": [],
      "name": "URIQueryForNonexistentToken",
      "type": "error"
    },
    {
      "anonymous": false,
      "inputs": [
        {
          "indexed": true,
          "internalType": "address",
          "name": "owner",
          "type": "address"
        },
        {
          "indexed": true,
          "internalType": "address",
          "name": "approved",
          "type": "address"
        },
        {
          "indexed": true,
          "internalType": "uint256",
          "name": "tokenId",
          "type": "uint256"
        }
      ],
      "name": "Approval",
      "type": "event"
    },
    {
      "anonymous": false,
      "inputs": [
        {
          "indexed": true,
          "internalType": "address",
          "name": "owner",
          "type": "address"
        },
        {
          "indexed": true,
          "internalType": "address",
          "name": "operator",
          "type": "address"
        },
        {
          "indexed": false,
          "internalType": "bool",
          "name": "approved",
          "type": "bool"
        }
      ],
      "name": "ApprovalForAll",
      "type": "event"
    },
    {
      "anonymous": false,
      "inputs": [
        {
          "indexed": true,
          "internalType": "address",
          "name": "from",
          "type": "address"
        },
        {
          "indexed": true,
          "internalType": "address",
          "name": "to",
          "type": "address"
        },
        {
          "indexed": true,
          "internalType": "uint256",
          "name": "tokenId",
          "type": "uint256"
        }
      ],
      "name": "Transfer",
      "type": "event"
    },
    {
      "inputs": [
        {
          "internalType": "address",
          "name": "to",
          "type": "address"
        },
        {
          "internalType": "uint256",
          "name": "tokenId",
          "type": "uint256"
        }
      ],
      "name": "approve",
      "outputs": [],
      "stateMutability": "nonpayable",
      "type": "function"
    },
    {
      "inputs": [
        {
          "internalType": "address",
          "name": "owner",
          "type": "address"
        }
      ],
      "name": "balanceOf",
      "outputs": [
        {
          "internalType": "uint256",
          "name": "",
          "type": "uint256"
        }
      ],
      "stateMutability": "view",
      "type": "function"
    },
    {
      "inputs": [],
      "name": "baseURI",
      "outputs": [
        {
          "internalType": "string",
          "name": "",
          "type": "string"
        }
      ],
      "stateMutability": "view",
      "type": "function"
    },
    {
      "inputs": [
        {
          "internalType": "uint256",
          "name": "tokenId",
          "type": "uint256"
        }
      ],
      "name": "burn",
      "outputs": [],
      "stateMutability": "nonpayable",
      "type": "function"
    },
    {
      "inputs": [
        {
          "internalType": "uint256",
          "name": "tokenId",
          "type": "uint256"
        },
        {
          "internalType": "bool",
          "name": "approvalCheck",
          "type": "bool"
        }
      ],
      "name": "burn",
      "outputs": [],
      "stateMutability": "nonpayable",
      "type": "function"
    },
    {
      "inputs": [
        {
          "internalType": "uint256",
          "name": "tokenId",
          "type": "uint256"
        }
      ],
      "name": "exists",
      "outputs": [
        {
          "internalType": "bool",
          "name": "",
          "type": "bool"
        }
      ],
      "stateMutability": "view",
      "type": "function"
    },
    {
      "inputs": [
        {
          "internalType": "uint256",
          "name": "tokenId",
          "type": "uint256"
        }
      ],
      "name": "getApproved",
      "outputs": [
        {
          "internalType": "address",
          "name": "",
          "type": "address"
        }
      ],
      "stateMutability": "view",
      "type": "function"
    },
    {
      "inputs": [
        {
          "internalType": "address",
          "name": "owner",
          "type": "address"
        }
      ],
      "name": "getAux",
      "outputs": [
        {
          "internalType": "uint64",
          "name": "",
          "type": "uint64"
        }
      ],
      "stateMutability": "view",
      "type": "function"
    },
    {
      "inputs": [
        {
          "internalType": "uint256",
          "name": "index",
          "type": "uint256"
        }
      ],
      "name": "getOwnershipAt",
      "outputs": [
        {
          "components": [
            {
              "internalType": "address",
              "name": "addr",
              "type": "address"
            },
            {
              "internalType": "uint64",
              "name": "startTimestamp",
              "type": "uint64"
            },
            {
              "internalType": "bool",
              "name": "burned",
              "type": "bool"
            }
          ],
          "internalType": "struct IERC721A.TokenOwnership",
          "name": "",
          "type": "tuple"
        }
      ],
      "stateMutability": "view",
      "type": "function"
    },
    {
      "inputs": [
        {
          "internalType": "uint256",
          "name": "index",
          "type": "uint256"
        }
      ],
      "name": "getOwnershipOf",
      "outputs": [
        {
          "components": [
            {
              "internalType": "address",
              "name": "addr",
              "type": "address"
            },
            {
              "internalType": "uint64",
              "name": "startTimestamp",
              "type": "uint64"
            },
            {
              "internalType": "bool",
              "name": "burned",
              "type": "bool"
            }
          ],
          "internalType": "struct IERC721A.TokenOwnership",
          "name": "",
          "type": "tuple"
        }
      ],
      "stateMutability": "view",
      "type": "function"
    },
    {
      "inputs": [
        {
          "internalType": "uint256",
          "name": "index",
          "type": "uint256"
        }
      ],
      "name": "initializeOwnershipAt",
      "outputs": [],
      "stateMutability": "nonpayable",
      "type": "function"
    },
    {
      "inputs": [
        {
          "internalType": "address",
          "name": "owner",
          "type": "address"
        },
        {
          "internalType": "address",
          "name": "operator",
          "type": "address"
        }
      ],
      "name": "isApprovedForAll",
      "outputs": [
        {
          "internalType": "bool",
          "name": "",
          "type": "bool"
        }
      ],
      "stateMutability": "view",
      "type": "function"
    },
    {
      "inputs": [
        {
          "internalType": "address",
          "name": "to",
          "type": "address"
        },
        {
          "internalType": "uint256",
          "name": "quantity",
          "type": "uint256"
        }
      ],
      "name": "mint",
      "outputs": [],
      "stateMutability": "nonpayable",
      "type": "function"
    },
    {
      "inputs": [],
      "name": "name",
      "outputs": [
        {
          "internalType": "string",
          "name": "",
          "type": "string"
        }
      ],
      "stateMutability": "view",
      "type": "function"
    },
    {
      "inputs": [],
      "name": "nextTokenId",
      "outputs": [
        {
          "internalType": "uint256",
          "name": "",
          "type": "uint256"
        }
      ],
      "stateMutability": "view",
      "type": "function"
    },
    {
      "inputs": [
        {
          "internalType": "address",
          "name": "owner",
          "type": "address"
        }
      ],
      "name": "numberMinted",
      "outputs": [
        {
          "internalType": "uint256",
          "name": "",
          "type": "uint256"
        }
      ],
      "stateMutability": "view",
      "type": "function"
    },
    {
      "inputs": [
        {
          "internalType": "uint256",
          "name": "tokenId",
          "type": "uint256"
        }
      ],
      "name": "ownerOf",
      "outputs": [
        {
          "internalType": "address",
          "name": "",
          "type": "address"
        }
      ],
      "stateMutability": "view",
      "type": "function"
    },
    {
      "inputs": [
        {
          "internalType": "address",
          "name": "to",
          "type": "address"
        },
        {
          "internalType": "uint256",
          "name": "quantity",
          "type": "uint256"
        },
        {
          "internalType": "bytes",
          "name": "_data",
          "type": "bytes"
        }
      ],
      "name": "safeMint",
      "outputs": [],
      "stateMutability": "nonpayable",
      "type": "function"
    },
    {
      "inputs": [
        {
          "internalType": "address",
          "name": "to",
          "type": "address"
        },
        {
          "internalType": "uint256",
          "name": "quantity",
          "type": "uint256"
        }
      ],
      "name": "safeMint",
      "outputs": [],
      "stateMutability": "nonpayable",
      "type": "function"
    },
    {
      "inputs": [
        {
          "internalType": "address",
          "name": "from",
          "type": "address"
        },
        {
          "internalType": "address",
          "name": "to",
          "type": "address"
        },
        {
          "internalType": "uint256",
          "name": "tokenId",
          "type": "uint256"
        }
      ],
      "name": "safeTransferFrom",
      "outputs": [],
      "stateMutability": "nonpayable",
      "type": "function"
    },
    {
      "inputs": [
        {
          "internalType": "address",
          "name": "from",
          "type": "address"
        },
        {
          "internalType": "address",
          "name": "to",
          "type": "address"
        },
        {
          "internalType": "uint256",
          "name": "tokenId",
          "type": "uint256"
        },
        {
          "internalType": "bytes",
          "name": "_data",
          "type": "bytes"
        }
      ],
      "name": "safeTransferFrom",
      "outputs": [],
      "stateMutability": "nonpayable",
      "type": "function"
    },
    {
      "inputs": [
        {
          "internalType": "address",
          "name": "operator",
          "type": "address"
        },
        {
          "internalType": "bool",
          "name": "approved",
          "type": "bool"
        }
      ],
      "name": "setApprovalForAll",
      "outputs": [],
      "stateMutability": "nonpayable",
      "type": "function"
    },
    {
      "inputs": [
        {
          "internalType": "address",
          "name": "owner",
          "type": "address"
        },
        {
          "internalType": "uint64",
          "name": "aux",
          "type": "uint64"
        }
      ],
      "name": "setAux",
      "outputs": [],
      "stateMutability": "nonpayable",
      "type": "function"
    },
    {
      "inputs": [],
      "name": "startTokenId",
      "outputs": [
        {
          "internalType": "uint256",
          "name": "",
          "type": "uint256"
        }
      ],
      "stateMutability": "view",
      "type": "function"
    },
    {
      "inputs": [
        {
          "internalType": "bytes4",
          "name": "interfaceId",
          "type": "bytes4"
        }
      ],
      "name": "supportsInterface",
      "outputs": [
        {
          "internalType": "bool",
          "name": "",
          "type": "bool"
        }
      ],
      "stateMutability": "view",
      "type": "function"
    },
    {
      "inputs": [],
      "name": "symbol",
      "outputs": [
        {
          "internalType": "string",
          "name": "",
          "type": "string"
        }
      ],
      "stateMutability": "view",
      "type": "function"
    },
    {
      "inputs": [
        {
          "internalType": "uint256",
          "name": "x",
          "type": "uint256"
        }
      ],
      "name": "toString",
      "outputs": [
        {
          "internalType": "string",
          "name": "",
          "type": "string"
        }
      ],
      "stateMutability": "pure",
      "type": "function"
    },
    {
      "inputs": [
        {
          "internalType": "uint256",
          "name": "tokenId",
          "type": "uint256"
        }
      ],
      "name": "tokenURI",
      "outputs": [
        {
          "internalType": "string",
          "name": "",
          "type": "string"
        }
      ],
      "stateMutability": "view",
      "type": "function"
    },
    {
      "inputs": [],
      "name": "totalBurned",
      "outputs": [
        {
          "internalType": "uint256",
          "name": "",
          "type": "uint256"
        }
      ],
      "stateMutability": "view",
      "type": "function"
    },
    {
      "inputs": [],
      "name": "totalMinted",
      "outputs": [
        {
          "internalType": "uint256",
          "name": "",
          "type": "uint256"
        }
      ],
      "stateMutability": "view",
      "type": "function"
    },
    {
      "inputs": [],
      "name": "totalSupply",
      "outputs": [
        {
          "internalType": "uint256",
          "name": "",
          "type": "uint256"
        }
      ],
      "stateMutability": "view",
      "type": "function"
    },
    {
      "inputs": [
        {
          "internalType": "address",
          "name": "from",
          "type": "address"
        },
        {
          "internalType": "address",
          "name": "to",
          "type": "address"
        },
        {
          "internalType": "uint256",
          "name": "tokenId",
          "type": "uint256"
        }
      ],
      "name": "transferFrom",
      "outputs": [],
      "stateMutability": "nonpayable",
      "type": "function"
    }
  ],
  "bytecode": "0x60806040523480156200001157600080fd5b50604051620018f7380380620018f78339810160408190526200003491620001f4565b6000819055825183908390829082906200005690600390602085019062000081565b5080516200006c90600490602084019062000081565b5060005460015550620002a495505050505050565b8280546200008f9062000267565b90600052602060002090601f016020900481019282620000b35760008555620000fe565b82601f10620000ce57805160ff1916838001178555620000fe565b82800160010185558215620000fe579182015b82811115620000fe578251825591602001919060010190620000e1565b506200010c92915062000110565b5090565b5b808211156200010c576000815560010162000111565b634e487b7160e01b600052604160045260246000fd5b600082601f8301126200014f57600080fd5b81516001600160401b03808211156200016c576200016c62000127565b604051601f8301601f19908116603f0116810190828211818310171562000197576200019762000127565b81604052838152602092508683858801011115620001b457600080fd5b600091505b83821015620001d85785820183015181830184015290820190620001b9565b83821115620001ea5760008385830101525b9695505050505050565b6000806000606084860312156200020a57600080fd5b83516001600160401b03808211156200022257600080fd5b62000230878388016200013d565b945060208601519150808211156200024757600080fd5b5062000256868287016200013d565b925050604084015190509250925092565b600181811c908216806200027c57607f821691505b602082108114156200029e57634e487b7160e01b600052602260045260246000fd5b50919050565b61164380620002b46000396000f3fe608060405234801561001057600080fd5b50600436106101f05760003560e01c806370a082311161010f578063b88d4fde116100a2578063dc33e68111610071578063dc33e6811461049b578063e6798baa146104ae578063e985e9c5146104b7578063f2523633146104f357600080fd5b8063b88d4fde14610441578063bf0b175e14610454578063c87b56dd14610480578063d89135cd1461049357600080fd5b80639fac68cb116100de5780639fac68cb146103fc578063a14481941461040f578063a22cb46514610422578063a2309ff81461043557600080fd5b806370a08231146103c657806375794a3c146103d95780638832e6e3146103e157806395d89b41146103f457600080fd5b806342966c681161018757806353b1233d1161015657806353b1233d146103855780636352211e146103985780636900a3ae146103ab5780636c0360eb146103be57600080fd5b806342966c68146102c5578063453ab141146102d85780634f558e791461032857806352d8a4d11461033b57600080fd5b806318160ddd116101c357806318160ddd1461027257806323b872dd1461028c57806340c10f191461029f57806342842e0e146102b257600080fd5b806301ffc9a7146101f557806306fdde031461021d578063081812fc14610232578063095ea7b31461025d575b600080fd5b610208610203366004611193565b610506565b60405190151581526020015b60405180910390f35b610225610558565b6040516102149190611208565b61024561024036600461121b565b6105ea565b6040516001600160a01b039091168152602001610214565b61027061026b366004611250565b61062e565b005b60005460025460015403035b604051908152602001610214565b61027061029a36600461127a565b6106db565b6102706102ad366004611250565b6106eb565b6102706102c036600461127a565b6106f9565b6102706102d336600461121b565b610714565b6102706102e63660046112b6565b6001600160a01b0382166000908152600660205260409020805460c083901b77ffffffffffffffffffffffffffffffffffffffffffffffff9091161790555050565b61020861033636600461121b565b610720565b61034e61034936600461121b565b61072b565b6040805182516001600160a01b0316815260208084015167ffffffffffffffff169082015291810151151590820152606001610214565b61027061039336600461121b565b610751565b6102456103a636600461121b565b61075a565b6102256103b936600461121b565b610765565b610225610770565b61027e6103d43660046112fa565b61077f565b61027e6107c5565b6102706103ef3660046113b8565b6107d0565b6102256107db565b61027061040a36600461141f565b6107ea565b61027061041d366004611250565b6107f4565b61027061043036600461144b565b6107fe565b6000546001540361027e565b61027061044f366004611475565b610894565b6104676104623660046112fa565b6108de565b60405167ffffffffffffffff9091168152602001610214565b61022561048e36600461121b565b6108ff565b61027e610984565b61027e6104a93660046112fa565b61098f565b61027e60005481565b6102086104c53660046114dd565b6001600160a01b03918216600090815260086020908152604080832093909416825291909152205460ff1690565b61034e61050136600461121b565b6109ba565b60006301ffc9a760e01b6001600160e01b03198316148061053757506380ac58cd60e01b6001600160e01b03198316145b806105525750635b5e139f60e01b6001600160e01b03198316145b92915050565b60606003805461056790611507565b80601f016020809104026020016040519081016040528092919081815260200182805461059390611507565b80156105e05780601f106105b5576101008083540402835291602001916105e0565b820191906000526020600020905b8154815290600101906020018083116105c357829003601f168201915b5050505050905090565b60006105f582610a46565b610612576040516333d1c03960e21b815260040160405180910390fd5b506000908152600760205260409020546001600160a01b031690565b600061063982610a82565b9050336001600160a01b038216146106725761065581336104c5565b610672576040516367d9dca160e11b815260040160405180910390fd5b600082815260076020526040808220805473ffffffffffffffffffffffffffffffffffffffff19166001600160a01b0387811691821790925591518593918516917f8c5be1e5ebec7d5bd14f71427d1e84f3dd0314c0f7b2291e5b200ac8c7c3b92591a4505050565b6106e6838383610af2565b505050565b6106f58282610caf565b5050565b6106e683838360405180602001604052806000815250610894565b61071d81610d81565b50565b600061055282610a46565b604080516060810182526000808252602082018190529181019190915261055282610d8c565b61071d81610df0565b600061055282610a82565b606061055282610e1e565b606061077a610e6d565b905090565b60008161079f576040516323d3ad8160e21b815260040160405180910390fd5b506001600160a01b031660009081526006602052604090205467ffffffffffffffff1690565b600061077a60015490565b6106e6838383610e8d565b60606004805461056790611507565b6106f58282610efa565b6106f5828261107b565b6001600160a01b0382163314156108285760405163b06307db60e01b815260040160405180910390fd5b3360008181526008602090815260408083206001600160a01b03871680855290835292819020805460ff191686151590811790915590519081529192917f17307eab39ab6107e8899845ad3d59bd9653f200f220920489ca2b5937696c31910160405180910390a35050565b61089f848484610af2565b6001600160a01b0383163b156108d8576108bb84848484611095565b6108d8576040516368d2bf6b60e11b815260040160405180910390fd5b50505050565b6001600160a01b03811660009081526006602052604081205460c01c610552565b606061090a82610a46565b61092757604051630a14c4b560e41b815260040160405180910390fd5b6000610931610e6d565b9050805160001415610952576040518060200160405280600081525061097d565b8061095c84610e1e565b60405160200161096d929190611542565b6040516020818303038152906040525b9392505050565b600061077a60025490565b6001600160a01b0381166000908152600660205260408082205467ffffffffffffffff911c16610552565b604080516060810182526000808252602082018190529181019190915261055282604080516060810182526000808252602082018190529181019190915260008281526005602052604090205461055290604080516060810182526001600160a01b038316815260a083901c67ffffffffffffffff166020820152600160e01b90921615159082015290565b600081610a5260005490565b11158015610a61575060015482105b8015610552575050600090815260056020526040902054600160e01b161590565b60008180610a8f60005490565b11610ad957600154811015610ad957600081815260056020526040902054600160e01b8116610ad7575b8061097d575060001901600081815260056020526040902054610ab9565b505b604051636f96cda160e11b815260040160405180910390fd5b6000610afd82610a82565b9050836001600160a01b0316816001600160a01b031614610b305760405162a1148160e81b815260040160405180910390fd5b6000828152600760205260408120546001600160a01b0390811691908616331480610b605750610b6086336104c5565b80610b7357506001600160a01b03821633145b905080610b9357604051632ce44b5f60e11b815260040160405180910390fd5b84610bb157604051633a954ecd60e21b815260040160405180910390fd5b8115610be1576000848152600760205260409020805473ffffffffffffffffffffffffffffffffffffffff191690555b6001600160a01b03868116600090815260066020908152604080832080546000190190559288168252828220805460010190558682526005905220600160e11b4260a01b871781179091558316610c665760018401600081815260056020526040902054610c64576001548114610c645760008181526005602052604090208490555b505b83856001600160a01b0316876001600160a01b03167fddf252ad1be2c89b69c2b068fc378daa952ba7f163c4a11628f55a4df523b3ef60405160405180910390a4505050505050565b60015482610ccf57604051622e076360e81b815260040160405180910390fd5b81610ced5760405163b562e8dd60e01b815260040160405180910390fd5b6001600160a01b03831660009081526006602090815260408083208054680100000000000000018702019055838352600590915281204260a01b85176001851460e11b1790555b60405160018201918301906001600160a01b038616906000907fddf252ad1be2c89b69c2b068fc378daa952ba7f163c4a11628f55a4df523b3ef908290a4828110610d3457500160015550565b61071d816000610efa565b6040805160608101825260008082526020820181905291810191909152610552610db583610a82565b604080516060810182526001600160a01b038316815260a083901c67ffffffffffffffff166020820152600160e01b90921615159082015290565b60008181526005602052604090205461071d57610e0c81610a82565b60008281526005602052604090205550565b604080516080810191829052607f0190826030600a8206018353600a90045b8015610e5b57600183039250600a81066030018353600a9004610e3d565b50819003601f19909101908152919050565b60606040518060800160405280604381526020016115cb60439139905090565b610e978383610caf565b6001600160a01b0383163b156106e6576001548281035b610ec16000868380600101945086611095565b610ede576040516368d2bf6b60e11b815260040160405180910390fd5b818110610eae578160015414610ef357600080fd5b5050505050565b6000610f0583610a82565b60008481526007602052604090205490915081906001600160a01b03168315610f7b576000336001600160a01b0384161480610f465750610f4683336104c5565b80610f5957506001600160a01b03821633145b905080610f7957604051632ce44b5f60e11b815260040160405180910390fd5b505b8015610fab576000858152600760205260409020805473ffffffffffffffffffffffffffffffffffffffff191690555b6001600160a01b038216600090815260066020908152604080832080546fffffffffffffffffffffffffffffffff01905587835260059091529020600360e01b4260a01b8417179055600160e11b831661103357600185016000818152600560205260409020546110315760015481146110315760008181526005602052604090208490555b505b60405185906000906001600160a01b038516907fddf252ad1be2c89b69c2b068fc378daa952ba7f163c4a11628f55a4df523b3ef908390a45050600280546001019055505050565b6106f5828260405180602001604052806000815250610e8d565b604051630a85bd0160e11b81526000906001600160a01b0385169063150b7a02906110ca903390899088908890600401611571565b6020604051808303816000875af1925050508015611105575060408051601f3d908101601f19168201909252611102918101906115ad565b60015b611160573d808015611133576040519150601f19603f3d011682016040523d82523d6000602084013e611138565b606091505b508051611158576040516368d2bf6b60e11b815260040160405180910390fd5b805181602001fd5b6001600160e01b031916630a85bd0160e11b149050949350505050565b6001600160e01b03198116811461071d57600080fd5b6000602082840312156111a557600080fd5b813561097d8161117d565b60005b838110156111cb5781810151838201526020016111b3565b838111156108d85750506000910152565b600081518084526111f48160208601602086016111b0565b601f01601f19169290920160200192915050565b60208152600061097d60208301846111dc565b60006020828403121561122d57600080fd5b5035919050565b80356001600160a01b038116811461124b57600080fd5b919050565b6000806040838503121561126357600080fd5b61126c83611234565b946020939093013593505050565b60008060006060848603121561128f57600080fd5b61129884611234565b92506112a660208501611234565b9150604084013590509250925092565b600080604083850312156112c957600080fd5b6112d283611234565b9150602083013567ffffffffffffffff811681146112ef57600080fd5b809150509250929050565b60006020828403121561130c57600080fd5b61097d82611234565b634e487b7160e01b600052604160045260246000fd5b600082601f83011261133c57600080fd5b813567ffffffffffffffff8082111561135757611357611315565b604051601f8301601f19908116603f0116810190828211818310171561137f5761137f611315565b8160405283815286602085880101111561139857600080fd5b836020870160208301376000602085830101528094505050505092915050565b6000806000606084860312156113cd57600080fd5b6113d684611234565b925060208401359150604084013567ffffffffffffffff8111156113f957600080fd5b6114058682870161132b565b9150509250925092565b8035801515811461124b57600080fd5b6000806040838503121561143257600080fd5b823591506114426020840161140f565b90509250929050565b6000806040838503121561145e57600080fd5b61146783611234565b91506114426020840161140f565b6000806000806080858703121561148b57600080fd5b61149485611234565b93506114a260208601611234565b925060408501359150606085013567ffffffffffffffff8111156114c557600080fd5b6114d18782880161132b565b91505092959194509250565b600080604083850312156114f057600080fd5b6114f983611234565b915061144260208401611234565b600181811c9082168061151b57607f821691505b6020821081141561153c57634e487b7160e01b600052602260045260246000fd5b50919050565b600083516115548184602088016111b0565b8351908301906115688183602088016111b0565b01949350505050565b60006001600160a01b038087168352808616602084015250836040830152608060608301526115a360808301846111dc565b9695505050505050565b6000602082840312156115bf57600080fd5b815161097d8161117d56fe697066733a2f2f6261667962656965696134716b327063326b6f6f643664327a6876616733753472686d7a6d73667862736c6e796e6a6761656671677468687676712fa26469706673582212201826f058341cd5745b31104b473e13dbbd0d43c64d631e1a85aefd5c72df6c5064736f6c634300080b0033",
  "linkReferences": {},
  "deployedLinkReferences": {}
}